{
  "contractName": "DualRingBulletproof",
  "abi": [
    {
      "inputs": [],
      "stateMutability": "nonpayable",
      "type": "constructor"
    },
    {
      "inputs": [
        {
          "internalType": "uint256[]",
          "name": "a",
          "type": "uint256[]"
        }
      ],
      "name": "generateParam",
      "outputs": [
        {
          "components": [
            {
              "components": [
                {
                  "internalType": "uint256",
                  "name": "X",
                  "type": "uint256"
                },
                {
                  "internalType": "uint256",
                  "name": "Y",
                  "type": "uint256"
                }
              ],
              "internalType": "struct alt_bn128.G1Point[]",
              "name": "Gs",
              "type": "tuple[]"
            },
            {
              "components": [
                {
                  "internalType": "uint256",
                  "name": "X",
                  "type": "uint256"
                },
                {
                  "internalType": "uint256",
                  "name": "Y",
                  "type": "uint256"
                }
              ],
              "internalType": "struct alt_bn128.G1Point",
              "name": "P",
              "type": "tuple"
            },
            {
              "internalType": "uint256",
              "name": "c",
              "type": "uint256"
            }
          ],
          "internalType": "struct NISA.Param",
          "name": "param",
          "type": "tuple"
        }
      ],
      "stateMutability": "view",
      "type": "function"
    },
    {
      "inputs": [
        {
          "components": [
            {
              "components": [
                {
                  "internalType": "uint256",
                  "name": "X",
                  "type": "uint256"
                },
                {
                  "internalType": "uint256",
                  "name": "Y",
                  "type": "uint256"
                }
              ],
              "internalType": "struct alt_bn128.G1Point[]",
              "name": "Gs",
              "type": "tuple[]"
            },
            {
              "components": [
                {
                  "internalType": "uint256",
                  "name": "X",
                  "type": "uint256"
                },
                {
                  "internalType": "uint256",
                  "name": "Y",
                  "type": "uint256"
                }
              ],
              "internalType": "struct alt_bn128.G1Point",
              "name": "P",
              "type": "tuple"
            },
            {
              "internalType": "uint256",
              "name": "c",
              "type": "uint256"
            }
          ],
          "internalType": "struct NISA.Param",
          "name": "param",
          "type": "tuple"
        },
        {
          "internalType": "uint256[]",
          "name": "a",
          "type": "uint256[]"
        }
      ],
      "name": "prove",
      "outputs": [
        {
          "components": [
            {
              "components": [
                {
                  "internalType": "uint256",
                  "name": "X",
                  "type": "uint256"
                },
                {
                  "internalType": "uint256",
                  "name": "Y",
                  "type": "uint256"
                }
              ],
              "internalType": "struct alt_bn128.G1Point[]",
              "name": "Ls",
              "type": "tuple[]"
            },
            {
              "components": [
                {
                  "internalType": "uint256",
                  "name": "X",
                  "type": "uint256"
                },
                {
                  "internalType": "uint256",
                  "name": "Y",
                  "type": "uint256"
                }
              ],
              "internalType": "struct alt_bn128.G1Point[]",
              "name": "Rs",
              "type": "tuple[]"
            },
            {
              "internalType": "uint256",
              "name": "a",
              "type": "uint256"
            },
            {
              "internalType": "uint256",
              "name": "b",
              "type": "uint256"
            }
          ],
          "internalType": "struct NISA.Proof",
          "name": "p",
          "type": "tuple"
        }
      ],
      "stateMutability": "view",
      "type": "function"
    },
    {
      "inputs": [
        {
          "internalType": "uint256",
          "name": "",
          "type": "uint256"
        }
      ],
      "name": "sks",
      "outputs": [
        {
          "internalType": "uint256",
          "name": "",
          "type": "uint256"
        }
      ],
      "stateMutability": "view",
      "type": "function"
    },
    {
      "inputs": [
        {
          "internalType": "uint256[]",
          "name": "a",
          "type": "uint256[]"
        }
      ],
      "name": "test",
      "outputs": [
        {
          "internalType": "bool",
          "name": "",
          "type": "bool"
        }
      ],
      "stateMutability": "view",
      "type": "function"
    },
    {
      "inputs": [
        {
          "internalType": "uint256[]",
          "name": "a",
          "type": "uint256[]"
        }
      ],
      "name": "test_p",
      "outputs": [
        {
          "components": [
            {
              "components": [
                {
                  "internalType": "uint256",
                  "name": "X",
                  "type": "uint256"
                },
                {
                  "internalType": "uint256",
                  "name": "Y",
                  "type": "uint256"
                }
              ],
              "internalType": "struct alt_bn128.G1Point[]",
              "name": "Gs",
              "type": "tuple[]"
            },
            {
              "components": [
                {
                  "internalType": "uint256",
                  "name": "X",
                  "type": "uint256"
                },
                {
                  "internalType": "uint256",
                  "name": "Y",
                  "type": "uint256"
                }
              ],
              "internalType": "struct alt_bn128.G1Point",
              "name": "P",
              "type": "tuple"
            },
            {
              "internalType": "uint256",
              "name": "c",
              "type": "uint256"
            }
          ],
          "internalType": "struct NISA.Param",
          "name": "",
          "type": "tuple"
        }
      ],
      "stateMutability": "view",
      "type": "function"
    },
    {
      "inputs": [
        {
          "components": [
            {
              "components": [
                {
                  "internalType": "uint256",
                  "name": "X",
                  "type": "uint256"
                },
                {
                  "internalType": "uint256",
                  "name": "Y",
                  "type": "uint256"
                }
              ],
              "internalType": "struct alt_bn128.G1Point[]",
              "name": "Gs",
              "type": "tuple[]"
            },
            {
              "components": [
                {
                  "internalType": "uint256",
                  "name": "X",
                  "type": "uint256"
                },
                {
                  "internalType": "uint256",
                  "name": "Y",
                  "type": "uint256"
                }
              ],
              "internalType": "struct alt_bn128.G1Point",
              "name": "P",
              "type": "tuple"
            },
            {
              "internalType": "uint256",
              "name": "c",
              "type": "uint256"
            }
          ],
          "internalType": "struct NISA.Param",
          "name": "param",
          "type": "tuple"
        },
        {
          "components": [
            {
              "components": [
                {
                  "internalType": "uint256",
                  "name": "X",
                  "type": "uint256"
                },
                {
                  "internalType": "uint256",
                  "name": "Y",
                  "type": "uint256"
                }
              ],
              "internalType": "struct alt_bn128.G1Point[]",
              "name": "Ls",
              "type": "tuple[]"
            },
            {
              "components": [
                {
                  "internalType": "uint256",
                  "name": "X",
                  "type": "uint256"
                },
                {
                  "internalType": "uint256",
                  "name": "Y",
                  "type": "uint256"
                }
              ],
              "internalType": "struct alt_bn128.G1Point[]",
              "name": "Rs",
              "type": "tuple[]"
            },
            {
              "internalType": "uint256",
              "name": "a",
              "type": "uint256"
            },
            {
              "internalType": "uint256",
              "name": "b",
              "type": "uint256"
            }
          ],
          "internalType": "struct NISA.Proof",
          "name": "p",
          "type": "tuple"
        }
      ],
      "name": "verify",
      "outputs": [
        {
          "internalType": "bool",
          "name": "",
          "type": "bool"
        }
      ],
      "stateMutability": "view",
      "type": "function"
    },
    {
      "inputs": [
        {
          "internalType": "uint256",
          "name": "_ring_size",
          "type": "uint256"
        }
      ],
      "name": "generateKeys",
      "outputs": [],
      "stateMutability": "nonpayable",
      "type": "function"
    },
    {
      "inputs": [
        {
          "internalType": "string",
          "name": "_message",
          "type": "string"
        },
        {
          "internalType": "uint256",
          "name": "_privateKeyIndex",
          "type": "uint256"
        }
      ],
      "name": "basic_sign",
      "outputs": [
        {
          "components": [
            {
              "internalType": "uint256[]",
              "name": "c",
              "type": "uint256[]"
            },
            {
              "internalType": "uint256",
              "name": "z",
              "type": "uint256"
            },
            {
              "internalType": "uint256",
              "name": "sum",
              "type": "uint256"
            },
            {
              "components": [
                {
                  "internalType": "uint256",
                  "name": "X",
                  "type": "uint256"
                },
                {
                  "internalType": "uint256",
                  "name": "Y",
                  "type": "uint256"
                }
              ],
              "internalType": "struct alt_bn128.G1Point",
              "name": "R",
              "type": "tuple"
            }
          ],
          "internalType": "struct DualRingBulletproof.Response",
          "name": "",
          "type": "tuple"
        }
      ],
      "stateMutability": "view",
      "type": "function"
    },
    {
      "inputs": [
        {
          "internalType": "string",
          "name": "_message",
          "type": "string"
        },
        {
          "components": [
            {
              "internalType": "uint256[]",
              "name": "c",
              "type": "uint256[]"
            },
            {
              "internalType": "uint256",
              "name": "z",
              "type": "uint256"
            },
            {
              "internalType": "uint256",
              "name": "sum",
              "type": "uint256"
            },
            {
              "components": [
                {
                  "internalType": "uint256",
                  "name": "X",
                  "type": "uint256"
                },
                {
                  "internalType": "uint256",
                  "name": "Y",
                  "type": "uint256"
                }
              ],
              "internalType": "struct alt_bn128.G1Point",
              "name": "R",
              "type": "tuple"
            }
          ],
          "internalType": "struct DualRingBulletproof.Response",
          "name": "sig",
          "type": "tuple"
        }
      ],
      "name": "basic_verify",
      "outputs": [
        {
          "internalType": "bool",
          "name": "",
          "type": "bool"
        }
      ],
      "stateMutability": "view",
      "type": "function"
    },
    {
      "inputs": [
        {
          "internalType": "string",
          "name": "_message",
          "type": "string"
        },
        {
          "internalType": "uint256",
          "name": "_privateKeyIndex",
          "type": "uint256"
        }
      ],
      "name": "full_sign",
      "outputs": [
        {
          "components": [
            {
              "internalType": "uint256",
              "name": "z",
              "type": "uint256"
            },
            {
              "components": [
                {
                  "components": [
                    {
                      "internalType": "uint256",
                      "name": "X",
                      "type": "uint256"
                    },
                    {
                      "internalType": "uint256",
                      "name": "Y",
                      "type": "uint256"
                    }
                  ],
                  "internalType": "struct alt_bn128.G1Point[]",
                  "name": "Gs",
                  "type": "tuple[]"
                },
                {
                  "components": [
                    {
                      "internalType": "uint256",
                      "name": "X",
                      "type": "uint256"
                    },
                    {
                      "internalType": "uint256",
                      "name": "Y",
                      "type": "uint256"
                    }
                  ],
                  "internalType": "struct alt_bn128.G1Point",
                  "name": "P",
                  "type": "tuple"
                },
                {
                  "internalType": "uint256",
                  "name": "c",
                  "type": "uint256"
                }
              ],
              "internalType": "struct NISA.Param",
              "name": "pa",
              "type": "tuple"
            },
            {
              "components": [
                {
                  "components": [
                    {
                      "internalType": "uint256",
                      "name": "X",
                      "type": "uint256"
                    },
                    {
                      "internalType": "uint256",
                      "name": "Y",
                      "type": "uint256"
                    }
                  ],
                  "internalType": "struct alt_bn128.G1Point[]",
                  "name": "Ls",
                  "type": "tuple[]"
                },
                {
                  "components": [
                    {
                      "internalType": "uint256",
                      "name": "X",
                      "type": "uint256"
                    },
                    {
                      "internalType": "uint256",
                      "name": "Y",
                      "type": "uint256"
                    }
                  ],
                  "internalType": "struct alt_bn128.G1Point[]",
                  "name": "Rs",
                  "type": "tuple[]"
                },
                {
                  "internalType": "uint256",
                  "name": "a",
                  "type": "uint256"
                },
                {
                  "internalType": "uint256",
                  "name": "b",
                  "type": "uint256"
                }
              ],
              "internalType": "struct NISA.Proof",
              "name": "pi",
              "type": "tuple"
            }
          ],
          "internalType": "struct DualRingBulletproof.Signature",
          "name": "",
          "type": "tuple"
        }
      ],
      "stateMutability": "view",
      "type": "function"
    },
    {
      "inputs": [
        {
          "components": [
            {
              "internalType": "uint256",
              "name": "z",
              "type": "uint256"
            },
            {
              "components": [
                {
                  "components": [
                    {
                      "internalType": "uint256",
                      "name": "X",
                      "type": "uint256"
                    },
                    {
                      "internalType": "uint256",
                      "name": "Y",
                      "type": "uint256"
                    }
                  ],
                  "internalType": "struct alt_bn128.G1Point[]",
                  "name": "Gs",
                  "type": "tuple[]"
                },
                {
                  "components": [
                    {
                      "internalType": "uint256",
                      "name": "X",
                      "type": "uint256"
                    },
                    {
                      "internalType": "uint256",
                      "name": "Y",
                      "type": "uint256"
                    }
                  ],
                  "internalType": "struct alt_bn128.G1Point",
                  "name": "P",
                  "type": "tuple"
                },
                {
                  "internalType": "uint256",
                  "name": "c",
                  "type": "uint256"
                }
              ],
              "internalType": "struct NISA.Param",
              "name": "pa",
              "type": "tuple"
            },
            {
              "components": [
                {
                  "components": [
                    {
                      "internalType": "uint256",
                      "name": "X",
                      "type": "uint256"
                    },
                    {
                      "internalType": "uint256",
                      "name": "Y",
                      "type": "uint256"
                    }
                  ],
                  "internalType": "struct alt_bn128.G1Point[]",
                  "name": "Ls",
                  "type": "tuple[]"
                },
                {
                  "components": [
                    {
                      "internalType": "uint256",
                      "name": "X",
                      "type": "uint256"
                    },
                    {
                      "internalType": "uint256",
                      "name": "Y",
                      "type": "uint256"
                    }
                  ],
                  "internalType": "struct alt_bn128.G1Point[]",
                  "name": "Rs",
                  "type": "tuple[]"
                },
                {
                  "internalType": "uint256",
                  "name": "a",
                  "type": "uint256"
                },
                {
                  "internalType": "uint256",
                  "name": "b",
                  "type": "uint256"
                }
              ],
              "internalType": "struct NISA.Proof",
              "name": "pi",
              "type": "tuple"
            }
          ],
          "internalType": "struct DualRingBulletproof.Signature",
          "name": "sig",
          "type": "tuple"
        }
      ],
      "name": "get_para",
      "outputs": [
        {
          "components": [
            {
              "internalType": "uint256",
              "name": "z",
              "type": "uint256"
            },
            {
              "components": [
                {
                  "internalType": "uint256",
                  "name": "X",
                  "type": "uint256"
                },
                {
                  "internalType": "uint256",
                  "name": "Y",
                  "type": "uint256"
                }
              ],
              "internalType": "struct alt_bn128.G1Point[]",
              "name": "Gs",
              "type": "tuple[]"
            },
            {
              "components": [
                {
                  "internalType": "uint256",
                  "name": "X",
                  "type": "uint256"
                },
                {
                  "internalType": "uint256",
                  "name": "Y",
                  "type": "uint256"
                }
              ],
              "internalType": "struct alt_bn128.G1Point",
              "name": "P",
              "type": "tuple"
            },
            {
              "internalType": "uint256",
              "name": "c",
              "type": "uint256"
            },
            {
              "components": [
                {
                  "internalType": "uint256",
                  "name": "X",
                  "type": "uint256"
                },
                {
                  "internalType": "uint256",
                  "name": "Y",
                  "type": "uint256"
                }
              ],
              "internalType": "struct alt_bn128.G1Point[]",
              "name": "Ls",
              "type": "tuple[]"
            },
            {
              "components": [
                {
                  "internalType": "uint256",
                  "name": "X",
                  "type": "uint256"
                },
                {
                  "internalType": "uint256",
                  "name": "Y",
                  "type": "uint256"
                }
              ],
              "internalType": "struct alt_bn128.G1Point[]",
              "name": "Rs",
              "type": "tuple[]"
            },
            {
              "internalType": "uint256",
              "name": "a",
              "type": "uint256"
            },
            {
              "internalType": "uint256",
              "name": "b",
              "type": "uint256"
            }
          ],
          "internalType": "struct DualRingBulletproof.Args",
          "name": "args",
          "type": "tuple"
        }
      ],
      "stateMutability": "pure",
      "type": "function"
    },
    {
      "inputs": [
        {
          "internalType": "string",
          "name": "_message",
          "type": "string"
        },
        {
          "components": [
            {
              "internalType": "uint256",
              "name": "z",
              "type": "uint256"
            },
            {
              "components": [
                {
                  "components": [
                    {
                      "internalType": "uint256",
                      "name": "X",
                      "type": "uint256"
                    },
                    {
                      "internalType": "uint256",
                      "name": "Y",
                      "type": "uint256"
                    }
                  ],
                  "internalType": "struct alt_bn128.G1Point[]",
                  "name": "Gs",
                  "type": "tuple[]"
                },
                {
                  "components": [
                    {
                      "internalType": "uint256",
                      "name": "X",
                      "type": "uint256"
                    },
                    {
                      "internalType": "uint256",
                      "name": "Y",
                      "type": "uint256"
                    }
                  ],
                  "internalType": "struct alt_bn128.G1Point",
                  "name": "P",
                  "type": "tuple"
                },
                {
                  "internalType": "uint256",
                  "name": "c",
                  "type": "uint256"
                }
              ],
              "internalType": "struct NISA.Param",
              "name": "pa",
              "type": "tuple"
            },
            {
              "components": [
                {
                  "components": [
                    {
                      "internalType": "uint256",
                      "name": "X",
                      "type": "uint256"
                    },
                    {
                      "internalType": "uint256",
                      "name": "Y",
                      "type": "uint256"
                    }
                  ],
                  "internalType": "struct alt_bn128.G1Point[]",
                  "name": "Ls",
                  "type": "tuple[]"
                },
                {
                  "components": [
                    {
                      "internalType": "uint256",
                      "name": "X",
                      "type": "uint256"
                    },
                    {
                      "internalType": "uint256",
                      "name": "Y",
                      "type": "uint256"
                    }
                  ],
                  "internalType": "struct alt_bn128.G1Point[]",
                  "name": "Rs",
                  "type": "tuple[]"
                },
                {
                  "internalType": "uint256",
                  "name": "a",
                  "type": "uint256"
                },
                {
                  "internalType": "uint256",
                  "name": "b",
                  "type": "uint256"
                }
              ],
              "internalType": "struct NISA.Proof",
              "name": "pi",
              "type": "tuple"
            }
          ],
          "internalType": "struct DualRingBulletproof.Signature",
          "name": "sig",
          "type": "tuple"
        }
      ],
      "name": "full_verify",
      "outputs": [
        {
          "internalType": "bool",
          "name": "",
          "type": "bool"
        }
      ],
      "stateMutability": "view",
      "type": "function"
    },
    {
      "inputs": [
        {
          "internalType": "string",
          "name": "_message",
          "type": "string"
        },
        {
          "components": [
            {
              "internalType": "uint256",
              "name": "z",
              "type": "uint256"
            },
            {
              "components": [
                {
                  "internalType": "uint256",
                  "name": "X",
                  "type": "uint256"
                },
                {
                  "internalType": "uint256",
                  "name": "Y",
                  "type": "uint256"
                }
              ],
              "internalType": "struct alt_bn128.G1Point[]",
              "name": "Gs",
              "type": "tuple[]"
            },
            {
              "components": [
                {
                  "internalType": "uint256",
                  "name": "X",
                  "type": "uint256"
                },
                {
                  "internalType": "uint256",
                  "name": "Y",
                  "type": "uint256"
                }
              ],
              "internalType": "struct alt_bn128.G1Point",
              "name": "P",
              "type": "tuple"
            },
            {
              "internalType": "uint256",
              "name": "c",
              "type": "uint256"
            },
            {
              "components": [
                {
                  "internalType": "uint256",
                  "name": "X",
                  "type": "uint256"
                },
                {
                  "internalType": "uint256",
                  "name": "Y",
                  "type": "uint256"
                }
              ],
              "internalType": "struct alt_bn128.G1Point[]",
              "name": "Ls",
              "type": "tuple[]"
            },
            {
              "components": [
                {
                  "internalType": "uint256",
                  "name": "X",
                  "type": "uint256"
                },
                {
                  "internalType": "uint256",
                  "name": "Y",
                  "type": "uint256"
                }
              ],
              "internalType": "struct alt_bn128.G1Point[]",
              "name": "Rs",
              "type": "tuple[]"
            },
            {
              "internalType": "uint256",
              "name": "a",
              "type": "uint256"
            },
            {
              "internalType": "uint256",
              "name": "b",
              "type": "uint256"
            }
          ],
          "internalType": "struct DualRingBulletproof.Args",
          "name": "sig",
          "type": "tuple"
        }
      ],
      "name": "from_external_verify",
      "outputs": [
        {
          "internalType": "bool",
          "name": "",
          "type": "bool"
        }
      ],
      "stateMutability": "view",
      "type": "function"
    }
  ],
  "bytecode": "0x60806040526200001660016200006c60201b60201c565b6002600082015181600001556020820151816001015550503480156200003b57600080fd5b506200004e60016200006c60201b60201c565b60008082015181600001556020820151816001015590505062000543565b6200007662000368565b60007f30644e72e131a029b85045b68181585d97816a916871ca8d3c208c16d87cfd4783620000a69190620003ff565b90506000600182620000b9919062000466565b91506000805b816200022c57600184620000d49190620004a1565b93507f30644e72e131a029b85045b68181585d97816a916871ca8d3c208c16d87cfd4780620001085762000107620003d0565b5b84850990507f30644e72e131a029b85045b68181585d97816a916871ca8d3c208c16d87cfd47806200013f576200013e620003d0565b5b84820990507f30644e72e131a029b85045b68181585d97816a916871ca8d3c208c16d87cfd4780620001765762000175620003d0565b5b600382089050620001eb81600460017f30644e72e131a029b85045b68181585d97816a916871ca8d3c208c16d87cfd47620001b29190620004a1565b620001be9190620004dc565b7f30644e72e131a029b85045b68181585d97816a916871ca8d3c208c16d87cfd476200024c60201b60201c565b9250807f30644e72e131a029b85045b68181585d97816a916871ca8d3c208c16d87cfd478062000220576200021f620003d0565b5b848509149150620000bf565b604051806040016040528085815260200184815250945050505050919050565b60006200025862000382565b62000262620003a4565b6020826000600681106200027b576200027a62000514565b5b6020020181815250506020826001600681106200029d576200029c62000514565b5b602002018181525050602082600260068110620002bf57620002be62000514565b5b6020020181815250508582600360068110620002e057620002df62000514565b5b602002018181525050848260046006811062000301576200030062000514565b5b602002018181525050838260056006811062000322576200032162000514565b5b60200201818152505060208160c0846005600019fa6200034157600080fd5b8060006001811062000358576200035762000514565b5b6020020151925050509392505050565b604051806040016040528060008152602001600081525090565b6040518060c00160405280600690602082028036833780820191505090505090565b6040518060200160405280600190602082028036833780820191505090505090565b6000819050919050565b7f4e487b7100000000000000000000000000000000000000000000000000000000600052601260045260246000fd5b60006200040c82620003c6565b91506200041983620003c6565b9250826200042c576200042b620003d0565b5b828206905092915050565b7f4e487b7100000000000000000000000000000000000000000000000000000000600052601160045260246000fd5b60006200047382620003c6565b91506200048083620003c6565b92508282039050818111156200049b576200049a62000437565b5b92915050565b6000620004ae82620003c6565b9150620004bb83620003c6565b9250828201905080821115620004d657620004d562000437565b5b92915050565b6000620004e982620003c6565b9150620004f683620003c6565b925082620005095762000508620003d0565b5b828204905092915050565b7f4e487b7100000000000000000000000000000000000000000000000000000000600052603260045260246000fd5b613d8780620005536000396000f3fe608060405234801561001057600080fd5b50600436106100cf5760003560e01c80639ae5baa31161008c578063b5c5d37a11610066578063b5c5d37a14610270578063c71cb64b146102a0578063ca160684146102d0578063f909cb5b14610300576100cf565b80639ae5baa3146101e05780639b8f3ef714610210578063b37bfc8414610240576100cf565b8063101ae41c146100d45780631a68fb5014610104578063255630511461012057806342bf93f5146101505780636c468bb514610180578063805c3e1e146101b0575b600080fd5b6100ee60048036038101906100e991906128e5565b610330565b6040516100fb9190612a91565b60405180910390f35b61011e60048036038101906101199190612ab3565b610718565b005b61013a60048036038101906101359190612ab3565b6107e6565b6040516101479190612aef565b60405180910390f35b61016a60048036038101906101659190612df8565b61080a565b6040516101779190612e8b565b60405180910390f35b61019a60048036038101906101959190612ea6565b610946565b6040516101a79190612e8b565b60405180910390f35b6101ca60048036038101906101c59190612f1e565b610ecc565b6040516101d791906130d5565b60405180910390f35b6101fa60048036038101906101f591906128e5565b610f51565b6040516102079190613208565b60405180910390f35b61022a600480360381019061022591906132ed565b61107f565b6040516102379190613386565b60405180910390f35b61025a600480360381019061025591906134c7565b61109d565b6040516102679190612e8b565b60405180910390f35b61028a600480360381019061028591906132ed565b61123e565b6040516102979190613386565b60405180910390f35b6102ba60048036038101906102b591906135d3565b611490565b6040516102c79190612e8b565b60405180910390f35b6102ea60048036038101906102e591906132ed565b61168a565b6040516102f79190612e8b565b60405180910390f35b61031a6004803603810190610315919061364b565b6116b9565b604051610327919061372d565b60405180910390f35b6103386125be565b600580549050821061037f576040517f08c379a0000000000000000000000000000000000000000000000000000000008152600401610376906137d2565b60405180910390fd5b6000426040516020016103929190613813565b6040516020818303038152906040528051906020012060001c905060006103d960026040518060400160405290816000820154815260200160018201548152505083611b16565b9050600060048054905067ffffffffffffffff8111156103fc576103fb612784565b5b60405190808252806020026020018201604052801561042a5781602001602082028036833780820191505090505b5090506000805b6004805490508110156105705786811461055d577f30644e72e131a029b85045b68181585d2833e84879b9709143e1f593f0000001600a428360405160200161047b92919061382e565b6040516020818303038152906040528051906020012060001c901c6104a09190613889565b8382815181106104b3576104b26138ba565b5b6020026020010181815250508281815181106104d2576104d16138ba565b5b6020026020010151826104e59190613918565b9150600061054d60048381548110610500576104ff6138ba565b5b9060005260206000209060020201604051806040016040529081600082015481526020016001820154815250508584815181106105405761053f6138ba565b5b6020026020010151611b16565b90506105598582611bce565b9450505b80806105689061394c565b915050610431565b506000878051906020012090506000816105f46004805480602002602001604051908101604052809291908181526020016000905b828210156105eb578382906000526020600020906002020160405180604001604052908160008201548152602001600182015481525050815260200190600101906105a5565b50505050611c82565b866000015187602001516040516020016106119493929190613a4f565b6040516020818303038152906040528051906020012060001c905061063e8161063985611da7565b611ddc565b848981518110610651576106506138ba565b5b60200260200101818152505060007f30644e72e131a029b85045b68181585d2833e84879b9709143e1f593f00000018061068e5761068d61385a565b5b858a815181106106a1576106a06138ba565b5b602002602001015160058b815481106106bd576106bc6138ba565b5b906000526020600020015409905060006106df886106da84611da7565b611ddc565b90506000604051806080016040528088815260200183815260200185815260200189815250905080995050505050505050505092915050565b60005b818110156107e25760006001826107329190613918565b90506005819080600181540180825580915050600190039060005260206000200160009091909190915055600061078960026040518060400160405290816000820154815260200160018201548152505083611b16565b9050600481908060018154018082558091505060019003906000526020600020906002020160009091909190915060008201518160000155602082015181600101555050505080806107da9061394c565b91505061071b565b5050565b600581815481106107f657600080fd5b906000526020600020016000915090505481565b600080151561082183602001518460400151610946565b1515036108315760009050610940565b60006108726108646002604051806040016040529081600082015481526020016001820154815250508560000151611b16565b846020015160200151611bce565b90506000848051906020012090506000816108f76004805480602002602001604051908101604052809291908181526020016000905b828210156108ee578382906000526020600020906002020160405180604001604052908160008201548152602001600182015481525050815260200190600101906108a8565b50505050611c82565b846000015185602001516040516020016109149493929190613a4f565b6040516020818303038152906040528051906020012060001c9050846020015160400151811493505050505b92915050565b600080610957846000015151611e18565b905060008167ffffffffffffffff81111561097557610974612784565b5b6040519080825280602002602001820160405280156109a35781602001602082028036833780820191505090505b50905060008267ffffffffffffffff8111156109c2576109c1612784565b5b6040519080825280602002602001820160405280156109f05781602001602082028036833780820191505090505b5090506000807f30644e72e131a029b85045b68181585d2833e84879b9709143e1f593f000000188602001516000015189602001516020015160008001546000600101548c60400151604051602001610a4d959493929190613a99565b6040516020818303038152906040528051906020012060001c610a709190613889565b90506000610ab88960200151610ab3600060405180604001604052908160008201548152602001600182015481525050610aae8d6040015187611e4c565b611b16565b611bce565b90506001925060005b86811015610d26577f30644e72e131a029b85045b68181585d2833e84879b9709143e1f593f000000189600001518281518110610b0157610b006138ba565b5b6020026020010151600001518a600001518381518110610b2457610b236138ba565b5b6020026020010151602001518b602001518481518110610b4757610b466138ba565b5b6020026020010151600001518c602001518581518110610b6a57610b696138ba565b5b602002602001015160200151604051602001610b899493929190613af8565b6040516020818303038152906040528051906020012060001c610bac9190613889565b868281518110610bbf57610bbe6138ba565b5b602002602001018181525050610bee868281518110610be157610be06138ba565b5b6020026020010151611e88565b858281518110610c0157610c006138ba565b5b602002602001018181525050610c7b82610c768b600001518481518110610c2b57610c2a6138ba565b5b6020026020010151610c718a8681518110610c4957610c486138ba565b5b60200260200101518b8781518110610c6457610c636138ba565b5b6020026020010151611e4c565b611b16565b611bce565b9150610ceb82610ce68b602001518481518110610c9b57610c9a6138ba565b5b6020026020010151610ce1898681518110610cb957610cb86138ba565b5b60200260200101518a8781518110610cd457610cd36138ba565b5b6020026020010151611e4c565b611b16565b611bce565b9150610d1184868381518110610d0457610d036138ba565b5b6020026020010151611e4c565b93508080610d1e9061394c565b915050610ac1565b506000610d528a60000151600081518110610d4457610d436138ba565b5b602002602001015185611b16565b90506000600190505b8a6000015151811015610e60576001945060005b88811015610e1957610d818282611ee8565b15610dc857610dc186896001848d610d999190613b46565b610da39190613b46565b81518110610db457610db36138ba565b5b6020026020010151611e4c565b9550610e06565b610e0386886001848d610ddb9190613b46565b610de59190613b46565b81518110610df657610df56138ba565b5b6020026020010151611e4c565b95505b8080610e119061394c565b915050610d6f565b50610e4b82610e468d600001518481518110610e3857610e376138ba565b5b602002602001015188611b16565b611bce565b91508080610e589061394c565b915050610d5b565b50610ea181610e9c610e9260006040518060400160405290816000820154815260200160018201548152505087611b16565b8c60600151611b16565b611bce565b9050610eb1818a60400151611b16565b9050610ebd8282611efb565b97505050505050505092915050565b610ed46125ec565b604051806101000160405280836000015181526020018360200151600001518152602001836020015160200151815260200183602001516040015181526020018360400151600001518152602001836040015160200151815260200183604001516040015181526020018360400151606001518152509050919050565b610f59612637565b6000610f658484610330565b90506000610f9f610f9a6002604051806040016040529081600082015481526020016001820154815250508460200151611b16565b611f23565b9050600060405180606001604052806004805480602002602001604051908101604052809291908181526020016000905b8282101561101657838290600052602060002090600202016040518060400160405290816000820154815260200160018201548152505081526020019060010190610fd0565b50505050815260200161102d848660600151611bce565b815260200184604001518152509050600061104c8285600001516116b9565b90506000604051806060016040528086602001518152602001848152602001838152509050809550505050505092915050565b611087612664565b60006110928361123e565b905080915050919050565b600080604051806060016040528084602001518152602001846040015181526020018460600151815250905060006040518060800160405280856080015181526020018560a0015181526020018560c0015181526020018560e0015181525090506000151561110c8383610946565b15150361111e57600092505050611238565b600061115b6111516002604051806040016040529081600082015481526020016001820154815250508760000151611b16565b8660400151611bce565b905060007f30644e72e131a029b85045b68181585d2833e84879b9709143e1f593f0000001876040516020016111919190613beb565b6040516020818303038152906040528051906020012060001c6111b49190613889565b905060007f30644e72e131a029b85045b68181585d2833e84879b9709143e1f593f00000016111e68860200151611c82565b83856000015186602001516040516020016112049493929190613c02565b6040516020818303038152906040528051906020012060001c6112279190613889565b905086606001518114955050505050505b92915050565b611246612664565b6000600183516112569190613b46565b83511614611299576040517f08c379a000000000000000000000000000000000000000000000000000000000815260040161129090613cbe565b60405180910390fd5b815167ffffffffffffffff8111156112b4576112b3612784565b5b6040519080825280602002602001820160405280156112ed57816020015b6112da61268b565b8152602001906001900390816112d25790505b50816000018190525060005b825181101561136d576113386000604051806040016040529081600082015481526020016001820154815250506002836113339190613918565b611b16565b8260000151828151811061134f5761134e6138ba565b5b602002602001018190525080806113659061394c565b9150506112f9565b5081600081518110611382576113816138ba565b5b60200260200101518160400181815250506113d781600001516000815181106113ae576113ad6138ba565b5b6020026020010151836000815181106113ca576113c96138ba565b5b6020026020010151611b16565b81602001819052506000600190505b825181101561148a57611417826040015184838151811061140a576114096138ba565b5b6020026020010151611ddc565b82604001818152505061146f826020015161146a84600001518481518110611442576114416138ba565b5b602002602001015186858151811061145d5761145c6138ba565b5b6020026020010151611b16565b611bce565b826020018190525080806114829061394c565b9150506113e6565b50919050565b6000806000905060008360000151905060008460200151905060006114d560026040518060400160405290816000820154815260200160018201548152505083611b16565b905060005b6004805490508110156115bd577f30644e72e131a029b85045b68181585d2833e84879b9709143e1f593f0000001806115165761151561385a565b5b848281518110611529576115286138ba565b5b602002602001015186089450600061159b6004838154811061154e5761154d6138ba565b5b90600052602060002090600202016040518060400160405290816000820154815260200160018201548152505086848151811061158e5761158d6138ba565b5b6020026020010151611b16565b90506115a78184611bce565b92505080806115b59061394c565b9150506114da565b506000878051906020012090506000816116416004805480602002602001604051908101604052809291908181526020016000905b82821015611638578382906000526020600020906002020160405180604001604052908160008201548152602001600182015481525050815260200190600101906115f2565b50505050611c82565b8460000151856020015160405160200161165e9493929190613a4f565b6040516020818303038152906040528051906020012060001c9050858114965050505050505092915050565b6000806116968361123e565b905060006116a482856116b9565b90506116b08282610946565b92505050919050565b6116c16126a5565b6000600183516116d19190613b46565b83511614611714576040517f08c379a000000000000000000000000000000000000000000000000000000000815260040161170b90613cbe565b60405180910390fd5b60006117208351611e18565b90508067ffffffffffffffff81111561173c5761173b612784565b5b60405190808252806020026020018201604052801561177557816020015b61176261268b565b81526020019060019003908161175a5790505b5082600001819052508067ffffffffffffffff81111561179857611797612784565b5b6040519080825280602002602001820160405280156117d157816020015b6117be61268b565b8152602001906001900390816117b65790505b50826020018190525060007f30644e72e131a029b85045b68181585d2833e84879b9709143e1f593f000000185602001516000015186602001516020015160008001546000600101548960400151604051602001611833959493929190613a99565b6040516020818303038152906040528051906020012060001c6118569190613889565b9050600061188460006040518060400160405290816000820154815260200160018201548152505083611b16565b90506000855167ffffffffffffffff8111156118a3576118a2612784565b5b6040519080825280602002602001820160405280156118d15781602001602082028036833780820191505090505b5090506000865167ffffffffffffffff8111156118f1576118f0612784565b5b60405190808252806020026020018201604052801561192a57816020015b61191761268b565b81526020019060019003908161190f5790505b50905060005b82518110156119aa57600183828151811061194e5761194d6138ba565b5b60200260200101818152505088600001518181518110611971576119706138ba565b5b602002602001015182828151811061198c5761198b6138ba565b5b602002602001018190525080806119a29061394c565b915050611930565b506119b361268b565b6119bb61268b565b600080600090505b88811015611abd576119d7858c888a611fb6565b8094508195505050838a6000015182815181106119f7576119f66138ba565b5b6020026020010181905250828a602001518281518110611a1a57611a196138ba565b5b60200260200101819052507f30644e72e131a029b85045b68181585d2833e84879b9709143e1f593f00000018460000151856020015185600001518660200151604051602001611a6d9493929190613af8565b6040516020818303038152906040528051906020012060001c611a909190613889565b9150611a9e858c8885612214565b809850819d508297505050508080611ab59061394c565b9150506119c3565b5089600081518110611ad257611ad16138ba565b5b602002602001015189604001818152505084600081518110611af757611af66138ba565b5b6020026020010151896060018181525050505050505050505092915050565b611b1e61268b565b60018203611b2e57829050611bc8565b60028203611b4757611b408384611bce565b9050611bc8565b611b4f6126cd565b836000015181600060038110611b6857611b676138ba565b5b602002018181525050836020015181600160038110611b8a57611b896138ba565b5b6020020181815250508281600260038110611ba857611ba76138ba565b5b6020020181815250506040826060836007600019fa611bc657600080fd5b505b92915050565b611bd661268b565b611bde6126ef565b836000015181600060048110611bf757611bf66138ba565b5b602002018181525050836020015181600160048110611c1957611c186138ba565b5b602002018181525050826000015181600260048110611c3b57611c3a6138ba565b5b602002018181525050826020015181600360048110611c5d57611c5c6138ba565b5b6020020181815250506040826080836006600019fa611c7b57600080fd5b5092915050565b6060600060028351611c949190613cde565b67ffffffffffffffff811115611cad57611cac612784565b5b604051908082528060200260200182016040528015611cdb5781602001602082028036833780820191505090505b50905060005b8351811015611d9d57838181518110611cfd57611cfc6138ba565b5b60200260200101516000015182600283611d179190613cde565b81518110611d2857611d276138ba565b5b602002602001018181525050838181518110611d4757611d466138ba565b5b602002602001015160200151826001600284611d639190613cde565b611d6d9190613918565b81518110611d7e57611d7d6138ba565b5b6020026020010181815250508080611d959061394c565b915050611ce1565b5080915050919050565b6000817f30644e72e131a029b85045b68181585d2833e84879b9709143e1f593f0000001611dd59190613b46565b9050919050565b60007f30644e72e131a029b85045b68181585d2833e84879b9709143e1f593f000000180611e0d57611e0c61385a565b5b828408905092915050565b60005b6001821115611e4757600181611e319190613918565b9050600282611e409190613d20565b9150611e1b565b919050565b60007f30644e72e131a029b85045b68181585d2833e84879b9709143e1f593f000000180611e7d57611e7c61385a565b5b828409905092915050565b6000611ee18260027f30644e72e131a029b85045b68181585d2833e84879b9709143e1f593f0000001611ebb9190613b46565b7f30644e72e131a029b85045b68181585d2833e84879b9709143e1f593f00000016124bc565b9050919050565b60006001808385901c1614905092915050565b600081600001518360000151148015611f1b575081602001518360200151145b905092915050565b611f2b61268b565b60008260000151148015611f43575060008260200151145b15611f665760405180604001604052806000815260200160008152509050611fb1565b60405180604001604052808360000151815260200183602001517f30644e72e131a029b85045b68181585d97816a916871ca8d3c208c16d87cfd47611fab9190613b46565b81525090505b919050565b611fbe61268b565b611fc661268b565b600060028651611fd69190613d20565b9050600061201987600081518110611ff157611ff06138ba565b5b602002602001015187848151811061200c5761200b6138ba565b5b6020026020010151611e4c565b9050600061205c888481518110612033576120326138ba565b5b60200260200101518860008151811061204f5761204e6138ba565b5b6020026020010151611e4c565b90506000600190505b83811015612128576120bf836120ba8b8481518110612087576120866138ba565b5b60200260200101518b858961209c9190613918565b815181106120ad576120ac6138ba565b5b6020026020010151611e4c565b611ddc565b92506121138261210e8b84886120d59190613918565b815181106120e6576120e56138ba565b5b60200260200101518b8581518110612101576121006138ba565b5b6020026020010151611e4c565b611ddc565b915080806121209061394c565b915050612065565b506121338683611b16565b945061213f8682611b16565b935060005b838110156122075761219e866121998c84886121609190613918565b81518110612171576121706138ba565b5b60200260200101518c858151811061218c5761218b6138ba565b5b6020026020010151611b16565b611bce565b95506121f2856121ed8c84815181106121ba576121b96138ba565b5b60200260200101518c85896121cf9190613918565b815181106121e0576121df6138ba565b5b6020026020010151611b16565b611bce565b945080806121ff9061394c565b915050612144565b5050505094509492505050565b60608060606000600287516122299190613d20565b9050600061223686611e88565b90508167ffffffffffffffff81111561225257612251612784565b5b60405190808252806020026020018201604052801561228b57816020015b61227861268b565b8152602001906001900390816122705790505b5094508167ffffffffffffffff8111156122a8576122a7612784565b5b6040519080825280602002602001820160405280156122d65781602001602082028036833780820191505090505b5093508167ffffffffffffffff8111156122f3576122f2612784565b5b6040519080825280602002602001820160405280156123215781602001602082028036833780820191505090505b50925060005b828110156124af5761238a6123568b8381518110612348576123476138ba565b5b602002602001015184611b16565b6123858c84876123669190613918565b81518110612377576123766138ba565b5b60200260200101518a611b16565b611bce565b86828151811061239d5761239c6138ba565b5b60200260200101819052506124036123cf888b84815181106123c2576123c16138ba565b5b6020026020010151611e4c565b6123fe848c85886123e09190613918565b815181106123f1576123f06138ba565b5b6020026020010151611e4c565b611ddc565b858281518110612416576124156138ba565b5b60200260200101818152505061247d612449838a848151811061243c5761243b6138ba565b5b6020026020010151611e4c565b612478898b858861245a9190613918565b8151811061246b5761246a6138ba565b5b6020026020010151611e4c565b611ddc565b8482815181106124905761248f6138ba565b5b60200260200101818152505080806124a79061394c565b915050612327565b5050509450945094915050565b60006124c6612711565b6124ce612733565b6020826000600681106124e4576124e36138ba565b5b602002018181525050602082600160068110612503576125026138ba565b5b602002018181525050602082600260068110612522576125216138ba565b5b60200201818152505085826003600681106125405761253f6138ba565b5b602002018181525050848260046006811061255e5761255d6138ba565b5b602002018181525050838260056006811061257c5761257b6138ba565b5b60200201818152505060208160c0846005600019fa61259a57600080fd5b806000600181106125ae576125ad6138ba565b5b6020020151925050509392505050565b60405180608001604052806060815260200160008152602001600081526020016125e661268b565b81525090565b604051806101000160405280600081526020016060815260200161260e61268b565b815260200160008152602001606081526020016060815260200160008152602001600081525090565b604051806060016040528060008152602001612651612664565b815260200161265e6126a5565b81525090565b60405180606001604052806060815260200161267e61268b565b8152602001600081525090565b604051806040016040528060008152602001600081525090565b6040518060800160405280606081526020016060815260200160008152602001600081525090565b6040518060600160405280600390602082028036833780820191505090505090565b6040518060800160405280600490602082028036833780820191505090505090565b6040518060c00160405280600690602082028036833780820191505090505090565b6040518060200160405280600190602082028036833780820191505090505090565b6000604051905090565b600080fd5b600080fd5b600080fd5b600080fd5b6000601f19601f8301169050919050565b7f4e487b7100000000000000000000000000000000000000000000000000000000600052604160045260246000fd5b6127bc82612773565b810181811067ffffffffffffffff821117156127db576127da612784565b5b80604052505050565b60006127ee612755565b90506127fa82826127b3565b919050565b600067ffffffffffffffff82111561281a57612819612784565b5b61282382612773565b9050602081019050919050565b82818337600083830152505050565b600061285261284d846127ff565b6127e4565b90508281526020810184848401111561286e5761286d61276e565b5b612879848285612830565b509392505050565b600082601f83011261289657612895612769565b5b81356128a684826020860161283f565b91505092915050565b6000819050919050565b6128c2816128af565b81146128cd57600080fd5b50565b6000813590506128df816128b9565b92915050565b600080604083850312156128fc576128fb61275f565b5b600083013567ffffffffffffffff81111561291a57612919612764565b5b61292685828601612881565b9250506020612937858286016128d0565b9150509250929050565b600081519050919050565b600082825260208201905092915050565b6000819050602082019050919050565b612976816128af565b82525050565b6000612988838361296d565b60208301905092915050565b6000602082019050919050565b60006129ac82612941565b6129b6818561294c565b93506129c18361295d565b8060005b838110156129f25781516129d9888261297c565b97506129e483612994565b9250506001810190506129c5565b5085935050505092915050565b604082016000820151612a15600085018261296d565b506020820151612a28602085018261296d565b50505050565b600060a0830160008301518482036000860152612a4b82826129a1565b9150506020830151612a60602086018261296d565b506040830151612a73604086018261296d565b506060830151612a8660608601826129ff565b508091505092915050565b60006020820190508181036000830152612aab8184612a2e565b905092915050565b600060208284031215612ac957612ac861275f565b5b6000612ad7848285016128d0565b91505092915050565b612ae9816128af565b82525050565b6000602082019050612b046000830184612ae0565b92915050565b600080fd5b600080fd5b600067ffffffffffffffff821115612b2f57612b2e612784565b5b602082029050602081019050919050565b600080fd5b600060408284031215612b5b57612b5a612b0a565b5b612b6560406127e4565b90506000612b75848285016128d0565b6000830152506020612b89848285016128d0565b60208301525092915050565b6000612ba8612ba384612b14565b6127e4565b90508083825260208201905060408402830185811115612bcb57612bca612b40565b5b835b81811015612bf45780612be08882612b45565b845260208401935050604081019050612bcd565b5050509392505050565b600082601f830112612c1357612c12612769565b5b8135612c23848260208601612b95565b91505092915050565b600060808284031215612c4257612c41612b0a565b5b612c4c60606127e4565b9050600082013567ffffffffffffffff811115612c6c57612c6b612b0f565b5b612c7884828501612bfe565b6000830152506020612c8c84828501612b45565b6020830152506060612ca0848285016128d0565b60408301525092915050565b600060808284031215612cc257612cc1612b0a565b5b612ccc60806127e4565b9050600082013567ffffffffffffffff811115612cec57612ceb612b0f565b5b612cf884828501612bfe565b600083015250602082013567ffffffffffffffff811115612d1c57612d1b612b0f565b5b612d2884828501612bfe565b6020830152506040612d3c848285016128d0565b6040830152506060612d50848285016128d0565b60608301525092915050565b600060608284031215612d7257612d71612b0a565b5b612d7c60606127e4565b90506000612d8c848285016128d0565b600083015250602082013567ffffffffffffffff811115612db057612daf612b0f565b5b612dbc84828501612c2c565b602083015250604082013567ffffffffffffffff811115612de057612ddf612b0f565b5b612dec84828501612cac565b60408301525092915050565b60008060408385031215612e0f57612e0e61275f565b5b600083013567ffffffffffffffff811115612e2d57612e2c612764565b5b612e3985828601612881565b925050602083013567ffffffffffffffff811115612e5a57612e59612764565b5b612e6685828601612d5c565b9150509250929050565b60008115159050919050565b612e8581612e70565b82525050565b6000602082019050612ea06000830184612e7c565b92915050565b60008060408385031215612ebd57612ebc61275f565b5b600083013567ffffffffffffffff811115612edb57612eda612764565b5b612ee785828601612c2c565b925050602083013567ffffffffffffffff811115612f0857612f07612764565b5b612f1485828601612cac565b9150509250929050565b600060208284031215612f3457612f3361275f565b5b600082013567ffffffffffffffff811115612f5257612f51612764565b5b612f5e84828501612d5c565b91505092915050565b600081519050919050565b600082825260208201905092915050565b6000819050602082019050919050565b6000612f9f83836129ff565b60408301905092915050565b6000602082019050919050565b6000612fc382612f67565b612fcd8185612f72565b9350612fd883612f83565b8060005b83811015613009578151612ff08882612f93565b9750612ffb83612fab565b925050600181019050612fdc565b5085935050505092915050565b60006101208301600083015161302f600086018261296d565b50602083015184820360208601526130478282612fb8565b915050604083015161305c60408601826129ff565b50606083015161306f608086018261296d565b50608083015184820360a08601526130878282612fb8565b91505060a083015184820360c08601526130a18282612fb8565b91505060c08301516130b660e086018261296d565b5060e08301516130ca61010086018261296d565b508091505092915050565b600060208201905081810360008301526130ef8184613016565b905092915050565b600060808301600083015184820360008601526131148282612fb8565b915050602083015161312960208601826129ff565b50604083015161313c606086018261296d565b508091505092915050565b600060808301600083015184820360008601526131648282612fb8565b9150506020830151848203602086015261317e8282612fb8565b9150506040830151613193604086018261296d565b5060608301516131a6606086018261296d565b508091505092915050565b60006060830160008301516131c9600086018261296d565b50602083015184820360208601526131e182826130f7565b915050604083015184820360408601526131fb8282613147565b9150508091505092915050565b6000602082019050818103600083015261322281846131b1565b905092915050565b600067ffffffffffffffff82111561324557613244612784565b5b602082029050602081019050919050565b60006132696132648461322a565b6127e4565b9050808382526020820190506020840283018581111561328c5761328b612b40565b5b835b818110156132b557806132a188826128d0565b84526020840193505060208101905061328e565b5050509392505050565b600082601f8301126132d4576132d3612769565b5b81356132e4848260208601613256565b91505092915050565b6000602082840312156133035761330261275f565b5b600082013567ffffffffffffffff81111561332157613320612764565b5b61332d848285016132bf565b91505092915050565b600060808301600083015184820360008601526133538282612fb8565b915050602083015161336860208601826129ff565b50604083015161337b606086018261296d565b508091505092915050565b600060208201905081810360008301526133a08184613336565b905092915050565b600061012082840312156133bf576133be612b0a565b5b6133ca6101006127e4565b905060006133da848285016128d0565b600083015250602082013567ffffffffffffffff8111156133fe576133fd612b0f565b5b61340a84828501612bfe565b602083015250604061341e84828501612b45565b6040830152506080613432848285016128d0565b60608301525060a082013567ffffffffffffffff81111561345657613455612b0f565b5b61346284828501612bfe565b60808301525060c082013567ffffffffffffffff81111561348657613485612b0f565b5b61349284828501612bfe565b60a08301525060e06134a6848285016128d0565b60c0830152506101006134bb848285016128d0565b60e08301525092915050565b600080604083850312156134de576134dd61275f565b5b600083013567ffffffffffffffff8111156134fc576134fb612764565b5b61350885828601612881565b925050602083013567ffffffffffffffff81111561352957613528612764565b5b613535858286016133a8565b9150509250929050565b600060a0828403121561355557613554612b0a565b5b61355f60806127e4565b9050600082013567ffffffffffffffff81111561357f5761357e612b0f565b5b61358b848285016132bf565b600083015250602061359f848285016128d0565b60208301525060406135b3848285016128d0565b60408301525060606135c784828501612b45565b60608301525092915050565b600080604083850312156135ea576135e961275f565b5b600083013567ffffffffffffffff81111561360857613607612764565b5b61361485828601612881565b925050602083013567ffffffffffffffff81111561363557613634612764565b5b6136418582860161353f565b9150509250929050565b600080604083850312156136625761366161275f565b5b600083013567ffffffffffffffff8111156136805761367f612764565b5b61368c85828601612c2c565b925050602083013567ffffffffffffffff8111156136ad576136ac612764565b5b6136b9858286016132bf565b9150509250929050565b600060808301600083015184820360008601526136e08282612fb8565b915050602083015184820360208601526136fa8282612fb8565b915050604083015161370f604086018261296d565b506060830151613722606086018261296d565b508091505092915050565b6000602082019050818103600083015261374781846136c3565b905092915050565b600082825260208201905092915050565b7f4475616c52696e673a20496e76616c69642070726976617465206b657920696e60008201527f6465780000000000000000000000000000000000000000000000000000000000602082015250565b60006137bc60238361374f565b91506137c782613760565b604082019050919050565b600060208201905081810360008301526137eb816137af565b9050919050565b6000819050919050565b61380d613808826128af565b6137f2565b82525050565b600061381f82846137fc565b60208201915081905092915050565b600061383a82856137fc565b60208201915061384a82846137fc565b6020820191508190509392505050565b7f4e487b7100000000000000000000000000000000000000000000000000000000600052601260045260246000fd5b6000613894826128af565b915061389f836128af565b9250826138af576138ae61385a565b5b828206905092915050565b7f4e487b7100000000000000000000000000000000000000000000000000000000600052603260045260246000fd5b7f4e487b7100000000000000000000000000000000000000000000000000000000600052601160045260246000fd5b6000613923826128af565b915061392e836128af565b9250828201905080821115613946576139456138e9565b5b92915050565b6000613957826128af565b91507fffffffffffffffffffffffffffffffffffffffffffffffffffffffffffffffff8203613989576139886138e9565b5b600182019050919050565b6000819050919050565b6000819050919050565b6139b96139b482613994565b61399e565b82525050565b600081905092915050565b6139d3816128af565b82525050565b60006139e583836139ca565b60208301905092915050565b60006139fc82612941565b613a0681856139bf565b9350613a118361295d565b8060005b83811015613a42578151613a2988826139d9565b9750613a3483612994565b925050600181019050613a15565b5085935050505092915050565b6000613a5b82876139a8565b602082019150613a6b82866139f1565b9150613a7782856137fc565b602082019150613a8782846137fc565b60208201915081905095945050505050565b6000613aa582886137fc565b602082019150613ab582876137fc565b602082019150613ac582866137fc565b602082019150613ad582856137fc565b602082019150613ae582846137fc565b6020820191508190509695505050505050565b6000613b0482876137fc565b602082019150613b1482866137fc565b602082019150613b2482856137fc565b602082019150613b3482846137fc565b60208201915081905095945050505050565b6000613b51826128af565b9150613b5c836128af565b9250828203905081811115613b7457613b736138e9565b5b92915050565b600081519050919050565b600081905092915050565b60005b83811015613bae578082015181840152602081019050613b93565b60008484015250505050565b6000613bc582613b7a565b613bcf8185613b85565b9350613bdf818560208601613b90565b80840191505092915050565b6000613bf78284613bba565b915081905092915050565b6000613c0e82876139f1565b9150613c1a82866137fc565b602082019150613c2a82856137fc565b602082019150613c3a82846137fc565b60208201915081905095945050505050565b7f766563746f72206c656e6774682073686f756c64206265206120706f7765722060008201527f6f66203200000000000000000000000000000000000000000000000000000000602082015250565b6000613ca860248361374f565b9150613cb382613c4c565b604082019050919050565b60006020820190508181036000830152613cd781613c9b565b9050919050565b6000613ce9826128af565b9150613cf4836128af565b9250828202613d02816128af565b91508282048414831517613d1957613d186138e9565b5b5092915050565b6000613d2b826128af565b9150613d36836128af565b925082613d4657613d4561385a565b5b82820490509291505056fea264697066735822122038c851563c955f75471ef91b1e322e46e89754fb86da514c7768aa57d4e7173564736f6c63430008130033",
  "immutableReferences": {},
  "source": "// SPDX-License-Identifier: GPL-3.0\r\npragma solidity >=0.7.0 <0.9.0;\r\n\r\nimport \"./alt_bn128.sol\";\r\nimport \"./nisa.sol\";\r\n\r\ncontract DualRingBulletproof is NISA {\r\n    using alt_bn128 for uint256;\r\n    using alt_bn128 for alt_bn128.G1Point;\r\n\r\n    struct Response {\r\n        uint256[] c;\r\n        uint256 z;\r\n        uint256 sum;\r\n        alt_bn128.G1Point R;\r\n    }\r\n\r\n    struct Signature {\r\n        uint256 z;\r\n        Param pa;\r\n        Proof pi;\r\n    }\r\n\r\n    alt_bn128.G1Point g = alt_bn128.uintToCurvePoint(1); // group generator\r\n\r\n    alt_bn128.G1Point[] pks; //publicKeys for alt_bn128 point\r\n\r\n    uint256[] public sks; // private keys\r\n\r\n    constructor() NISA() {}\r\n\r\n    // Function to generate a new private key\r\n    function generateKeys(uint _ring_size) public {\r\n        for (uint i = 0; i < _ring_size; i++) {\r\n            uint k = i + 1;\r\n            sks.push(k);\r\n\r\n            alt_bn128.G1Point memory pk = alt_bn128.mul(g, k);\r\n            pks.push(pk);\r\n        }\r\n    }\r\n\r\n    function packArray(\r\n        alt_bn128.G1Point[] memory arr\r\n    ) internal pure returns (uint256[] memory ) {\r\n        uint256[] memory array = new uint256[] (arr.length*2);\r\n        for (uint256 i = 0; i < arr.length; i++) {\r\n            array[i*2] = arr[i].X;\r\n            array[i*2+1] = arr[i].Y;\r\n        }\r\n        return array;\r\n    }\r\n\r\n    // Function to sign a message using a private key\r\n    function basic_sign(\r\n        string memory _message,\r\n        uint _privateKeyIndex\r\n    ) public view returns (Response memory) {\r\n        require(\r\n            _privateKeyIndex < sks.length,\r\n            \"DualRing: Invalid private key index\"\r\n        );\r\n\r\n        uint256 r = uint256(keccak256(abi.encodePacked(block.timestamp))); // random number, for testing purpose set it fixed\r\n\r\n        // emit LogVariable(r);\r\n\r\n        // commitment point R\r\n        alt_bn128.G1Point memory R = alt_bn128.mul(g, r);\r\n\r\n        uint256[] memory cArray = new uint256[](pks.length);\r\n\r\n        uint256 sumExceptJ = 0;\r\n        for (uint256 i = 0; i < pks.length; i++) {\r\n            if (i != _privateKeyIndex) {\r\n                cArray[i] =\r\n                    (uint256(keccak256(abi.encodePacked(block.timestamp, i))) >>\r\n                        10) %\r\n                    alt_bn128.q;\r\n                sumExceptJ = sumExceptJ + cArray[i];\r\n\r\n                alt_bn128.G1Point memory temp = alt_bn128.mul(\r\n                    pks[i],\r\n                    cArray[i]\r\n                );\r\n                R = alt_bn128.add(R, temp);\r\n            }\r\n        }\r\n\r\n        bytes32 messageHash = keccak256(bytes(_message));\r\n        uint256 c = (\r\n            uint256(\r\n                bytes32(\r\n                    keccak256(\r\n                        abi.encodePacked(messageHash, packArray(pks), R.X, R.Y)\r\n                    )\r\n                )\r\n            )\r\n        );\r\n\r\n        cArray[_privateKeyIndex] = alt_bn128.add(c, alt_bn128.neg(sumExceptJ));\r\n\r\n        uint256 p = mulmod(\r\n            sks[_privateKeyIndex],\r\n            cArray[_privateKeyIndex],\r\n            alt_bn128.q\r\n        );\r\n\r\n        uint256 z = alt_bn128.add(r, alt_bn128.neg(p));\r\n\r\n        Response memory sig = Response({c: cArray, z: z, sum: c, R: R});\r\n\r\n        return sig;\r\n    }\r\n\r\n    // verify a message with the given signature\r\n    function basic_verify(\r\n        string memory _message,\r\n        Response memory sig\r\n    ) public view returns (bool) {\r\n        uint256 sumExceptJ = 0;\r\n\r\n        uint256[] memory cArray = sig.c;\r\n        uint256 z = sig.z;\r\n\r\n        alt_bn128.G1Point memory R = alt_bn128.mul(g, z);\r\n\r\n        for (uint256 i = 0; i < pks.length; i++) {\r\n            sumExceptJ = addmod(sumExceptJ, cArray[i], alt_bn128.q);\r\n\r\n            alt_bn128.G1Point memory tempV = alt_bn128.mul(pks[i], cArray[i]);\r\n\r\n            R = alt_bn128.add(tempV, R);\r\n        }\r\n\r\n        bytes32 messageHash = keccak256(bytes(_message));\r\n        uint256 c = (\r\n            uint256(\r\n                bytes32(\r\n                    keccak256(\r\n                        abi.encodePacked(messageHash, packArray(pks), R.X, R.Y)\r\n                    )\r\n                )\r\n            )\r\n        );\r\n\r\n        return c == sumExceptJ;\r\n    }\r\n\r\n    // sign a message with bulletproof\r\n    function full_sign(\r\n        string memory _message,\r\n        uint _privateKeyIndex\r\n    ) public view returns (Signature memory) {\r\n        Response memory re = basic_sign(_message, _privateKeyIndex);\r\n        alt_bn128.G1Point memory temp = alt_bn128.neg(alt_bn128.mul(g, re.z));\r\n\r\n        Param memory param = Param({\r\n            Gs: pks,\r\n            P: alt_bn128.add(temp, re.R),\r\n            c: re.sum\r\n        });\r\n\r\n        Proof memory p = prove(param, re.c); // use bulletproof to reduce the signature size;\r\n\r\n        Signature memory sig = Signature({z: re.z, pi: p, pa: param});\r\n\r\n        return sig;\r\n    }\r\n\r\n    // uint256 z;\r\n    // alt_bn128.G1Point[] Gs;\r\n    // alt_bn128.G1Point P;\r\n    // uint256 c;\r\n    // alt_bn128.G1Point[] Ls;\r\n    // alt_bn128.G1Point[] Rs;\r\n    // uint256 a;\r\n    // uint256 b;\r\n    struct Args {\r\n        uint256 z;\r\n        alt_bn128.G1Point[] Gs;\r\n        alt_bn128.G1Point P;\r\n        uint256 c;\r\n        alt_bn128.G1Point[] Ls;\r\n        alt_bn128.G1Point[] Rs;\r\n        uint256 a;\r\n        uint256 b;\r\n    }\r\n\r\n    function get_para(\r\n        Signature memory sig\r\n    ) public pure returns (Args memory args) {\r\n        args = Args({\r\n            z: sig.z,\r\n            Gs: sig.pa.Gs,\r\n            P: sig.pa.P,\r\n            c: sig.pa.c,\r\n            Ls: sig.pi.Ls,\r\n            Rs: sig.pi.Rs,\r\n            a: sig.pi.a,\r\n            b: sig.pi.b\r\n        });\r\n    }\r\n\r\n    // verify the message and proof generated from the full_sign funnction\r\n    function full_verify(\r\n        string memory _message,\r\n        Signature memory sig\r\n    ) public view returns (bool) {\r\n        if (verify(sig.pa, sig.pi) == false) {\r\n            return false;\r\n        }\r\n\r\n        alt_bn128.G1Point memory R = alt_bn128.add(\r\n            alt_bn128.mul(g, sig.z),\r\n            sig.pa.P\r\n        );\r\n\r\n        bytes32 messageHash = keccak256(bytes(_message));\r\n        uint256 c = (\r\n            uint256(\r\n                bytes32(\r\n                    keccak256(\r\n                        abi.encodePacked(messageHash, packArray(pks), R.X, R.Y)\r\n                    )\r\n                )\r\n            )\r\n        );\r\n\r\n        return c == sig.pa.c;\r\n    }\r\n\r\n    function from_external_verify(\r\n        string memory _message,\r\n        Args memory sig\r\n    ) public view returns (bool) {\r\n        Param memory pa = Param({Gs: sig.Gs, P: sig.P, c: sig.c});\r\n        Proof memory pi = Proof({Ls: sig.Ls, Rs: sig.Rs, a: sig.a, b: sig.b});\r\n\r\n        if (verify(pa, pi) == false) {\r\n            return false;\r\n        }\r\n\r\n        alt_bn128.G1Point memory R = alt_bn128.add(\r\n            alt_bn128.mul(g, sig.z),\r\n            sig.P\r\n        );\r\n\r\n        uint256 messageHash = uint256 (keccak256(abi.encodePacked((_message))))%(alt_bn128.q);\r\n        uint256 c = uint256(\r\n                keccak256(\r\n                    abi.encodePacked(\r\n                        packArray(sig.Gs), messageHash, R.X, R.Y\r\n                    )\r\n                )\r\n            )%(alt_bn128.q);\r\n\r\n        return c == sig.c;\r\n\r\n    }\r\n}\r\n",
  "sourcePath": "/Users/hxy/ZK-research/ZKP-Blockchain/contracts/DualRingBulletproof.sol",
  "compiler": {
    "name": "solc",
    "version": "0.8.19+commit.7dd6d404.Emscripten.clang"
  },
  "schemaVersion": "3.4.13",
  "updatedAt": "2023-05-04T03:27:50.864Z",
  "devdoc": {
    "kind": "dev",
    "methods": {},
    "version": 1
  },
  "userdoc": {
    "kind": "user",
    "methods": {
      "generateParam(uint256[])": {
        "notice": "Gs : public keys P : prod_i (g_i ^ a_i) c : sum_i a_i"
      },
      "test(uint256[])": {
        "notice": "test correctness "
      },
      "test_p(uint256[])": {
        "notice": "test correctness "
      }
    },
    "version": 1
  }
}