{
  "contractName": "NISA",
  "abi": [
    {
      "inputs": [],
      "stateMutability": "nonpayable",
      "type": "constructor"
    },
    {
      "inputs": [
        {
          "internalType": "uint256[]",
          "name": "a",
          "type": "uint256[]"
        }
      ],
      "name": "test_p",
      "outputs": [
        {
          "components": [
            {
              "components": [
                {
                  "internalType": "uint256",
                  "name": "X",
                  "type": "uint256"
                },
                {
                  "internalType": "uint256",
                  "name": "Y",
                  "type": "uint256"
                }
              ],
              "internalType": "struct alt_bn128.G1Point[]",
              "name": "Gs",
              "type": "tuple[]"
            },
            {
              "components": [
                {
                  "internalType": "uint256",
                  "name": "X",
                  "type": "uint256"
                },
                {
                  "internalType": "uint256",
                  "name": "Y",
                  "type": "uint256"
                }
              ],
              "internalType": "struct alt_bn128.G1Point",
              "name": "P",
              "type": "tuple"
            },
            {
              "internalType": "uint256",
              "name": "c",
              "type": "uint256"
            }
          ],
          "internalType": "struct NISA.Param",
          "name": "",
          "type": "tuple"
        }
      ],
      "stateMutability": "view",
      "type": "function"
    },
    {
      "inputs": [
        {
          "internalType": "uint256[]",
          "name": "a",
          "type": "uint256[]"
        }
      ],
      "name": "test",
      "outputs": [
        {
          "internalType": "bool",
          "name": "",
          "type": "bool"
        }
      ],
      "stateMutability": "view",
      "type": "function"
    },
    {
      "inputs": [
        {
          "internalType": "uint256[]",
          "name": "a",
          "type": "uint256[]"
        }
      ],
      "name": "generateParam",
      "outputs": [
        {
          "components": [
            {
              "components": [
                {
                  "internalType": "uint256",
                  "name": "X",
                  "type": "uint256"
                },
                {
                  "internalType": "uint256",
                  "name": "Y",
                  "type": "uint256"
                }
              ],
              "internalType": "struct alt_bn128.G1Point[]",
              "name": "Gs",
              "type": "tuple[]"
            },
            {
              "components": [
                {
                  "internalType": "uint256",
                  "name": "X",
                  "type": "uint256"
                },
                {
                  "internalType": "uint256",
                  "name": "Y",
                  "type": "uint256"
                }
              ],
              "internalType": "struct alt_bn128.G1Point",
              "name": "P",
              "type": "tuple"
            },
            {
              "internalType": "uint256",
              "name": "c",
              "type": "uint256"
            }
          ],
          "internalType": "struct NISA.Param",
          "name": "param",
          "type": "tuple"
        }
      ],
      "stateMutability": "view",
      "type": "function"
    },
    {
      "inputs": [
        {
          "components": [
            {
              "components": [
                {
                  "internalType": "uint256",
                  "name": "X",
                  "type": "uint256"
                },
                {
                  "internalType": "uint256",
                  "name": "Y",
                  "type": "uint256"
                }
              ],
              "internalType": "struct alt_bn128.G1Point[]",
              "name": "Gs",
              "type": "tuple[]"
            },
            {
              "components": [
                {
                  "internalType": "uint256",
                  "name": "X",
                  "type": "uint256"
                },
                {
                  "internalType": "uint256",
                  "name": "Y",
                  "type": "uint256"
                }
              ],
              "internalType": "struct alt_bn128.G1Point",
              "name": "P",
              "type": "tuple"
            },
            {
              "internalType": "uint256",
              "name": "c",
              "type": "uint256"
            }
          ],
          "internalType": "struct NISA.Param",
          "name": "param",
          "type": "tuple"
        },
        {
          "internalType": "uint256[]",
          "name": "a",
          "type": "uint256[]"
        }
      ],
      "name": "prove",
      "outputs": [
        {
          "components": [
            {
              "components": [
                {
                  "internalType": "uint256",
                  "name": "X",
                  "type": "uint256"
                },
                {
                  "internalType": "uint256",
                  "name": "Y",
                  "type": "uint256"
                }
              ],
              "internalType": "struct alt_bn128.G1Point[]",
              "name": "Ls",
              "type": "tuple[]"
            },
            {
              "components": [
                {
                  "internalType": "uint256",
                  "name": "X",
                  "type": "uint256"
                },
                {
                  "internalType": "uint256",
                  "name": "Y",
                  "type": "uint256"
                }
              ],
              "internalType": "struct alt_bn128.G1Point[]",
              "name": "Rs",
              "type": "tuple[]"
            },
            {
              "internalType": "uint256",
              "name": "a",
              "type": "uint256"
            },
            {
              "internalType": "uint256",
              "name": "b",
              "type": "uint256"
            }
          ],
          "internalType": "struct NISA.Proof",
          "name": "p",
          "type": "tuple"
        }
      ],
      "stateMutability": "view",
      "type": "function"
    },
    {
      "inputs": [
        {
          "components": [
            {
              "components": [
                {
                  "internalType": "uint256",
                  "name": "X",
                  "type": "uint256"
                },
                {
                  "internalType": "uint256",
                  "name": "Y",
                  "type": "uint256"
                }
              ],
              "internalType": "struct alt_bn128.G1Point[]",
              "name": "Gs",
              "type": "tuple[]"
            },
            {
              "components": [
                {
                  "internalType": "uint256",
                  "name": "X",
                  "type": "uint256"
                },
                {
                  "internalType": "uint256",
                  "name": "Y",
                  "type": "uint256"
                }
              ],
              "internalType": "struct alt_bn128.G1Point",
              "name": "P",
              "type": "tuple"
            },
            {
              "internalType": "uint256",
              "name": "c",
              "type": "uint256"
            }
          ],
          "internalType": "struct NISA.Param",
          "name": "param",
          "type": "tuple"
        },
        {
          "components": [
            {
              "components": [
                {
                  "internalType": "uint256",
                  "name": "X",
                  "type": "uint256"
                },
                {
                  "internalType": "uint256",
                  "name": "Y",
                  "type": "uint256"
                }
              ],
              "internalType": "struct alt_bn128.G1Point[]",
              "name": "Ls",
              "type": "tuple[]"
            },
            {
              "components": [
                {
                  "internalType": "uint256",
                  "name": "X",
                  "type": "uint256"
                },
                {
                  "internalType": "uint256",
                  "name": "Y",
                  "type": "uint256"
                }
              ],
              "internalType": "struct alt_bn128.G1Point[]",
              "name": "Rs",
              "type": "tuple[]"
            },
            {
              "internalType": "uint256",
              "name": "a",
              "type": "uint256"
            },
            {
              "internalType": "uint256",
              "name": "b",
              "type": "uint256"
            }
          ],
          "internalType": "struct NISA.Proof",
          "name": "p",
          "type": "tuple"
        }
      ],
      "name": "verify",
      "outputs": [
        {
          "internalType": "bool",
          "name": "",
          "type": "bool"
        }
      ],
      "stateMutability": "view",
      "type": "function"
    }
  ],
  "bytecode": "0x60806040523480156200001157600080fd5b506200002460016200004260201b60201c565b60008082015181600001556020820151816001015590505062000519565b6200004c6200033e565b60007f30644e72e131a029b85045b68181585d97816a916871ca8d3c208c16d87cfd47836200007c9190620003d5565b905060006001826200008f91906200043c565b91506000805b816200020257600184620000aa919062000477565b93507f30644e72e131a029b85045b68181585d97816a916871ca8d3c208c16d87cfd4780620000de57620000dd620003a6565b5b84850990507f30644e72e131a029b85045b68181585d97816a916871ca8d3c208c16d87cfd4780620001155762000114620003a6565b5b84820990507f30644e72e131a029b85045b68181585d97816a916871ca8d3c208c16d87cfd47806200014c576200014b620003a6565b5b600382089050620001c181600460017f30644e72e131a029b85045b68181585d97816a916871ca8d3c208c16d87cfd4762000188919062000477565b620001949190620004b2565b7f30644e72e131a029b85045b68181585d97816a916871ca8d3c208c16d87cfd476200022260201b60201c565b9250807f30644e72e131a029b85045b68181585d97816a916871ca8d3c208c16d87cfd4780620001f657620001f5620003a6565b5b84850914915062000095565b604051806040016040528085815260200184815250945050505050919050565b60006200022e62000358565b620002386200037a565b602082600060068110620002515762000250620004ea565b5b602002018181525050602082600160068110620002735762000272620004ea565b5b602002018181525050602082600260068110620002955762000294620004ea565b5b6020020181815250508582600360068110620002b657620002b5620004ea565b5b6020020181815250508482600460068110620002d757620002d6620004ea565b5b6020020181815250508382600560068110620002f857620002f7620004ea565b5b60200201818152505060208160c0846005600019fa6200031757600080fd5b806000600181106200032e576200032d620004ea565b5b6020020151925050509392505050565b604051806040016040528060008152602001600081525090565b6040518060c00160405280600690602082028036833780820191505090505090565b6040518060200160405280600190602082028036833780820191505090505090565b6000819050919050565b7f4e487b7100000000000000000000000000000000000000000000000000000000600052601260045260246000fd5b6000620003e2826200039c565b9150620003ef836200039c565b925082620004025762000401620003a6565b5b828206905092915050565b7f4e487b7100000000000000000000000000000000000000000000000000000000600052601160045260246000fd5b600062000449826200039c565b915062000456836200039c565b92508282039050818111156200047157620004706200040d565b5b92915050565b600062000484826200039c565b915062000491836200039c565b9250828201905080821115620004ac57620004ab6200040d565b5b92915050565b6000620004bf826200039c565b9150620004cc836200039c565b925082620004df57620004de620003a6565b5b828204905092915050565b7f4e487b7100000000000000000000000000000000000000000000000000000000600052603260045260246000fd5b61220a80620005296000396000f3fe608060405234801561001057600080fd5b50600436106100575760003560e01c80636c468bb51461005c5780639b8f3ef71461008c578063b5c5d37a146100bc578063ca160684146100ec578063f909cb5b1461011c575b600080fd5b61007660048036038101906100719190611aa7565b61014c565b6040516100839190611b3a565b60405180910390f35b6100a660048036038101906100a19190611c18565b6106d2565b6040516100b39190611d9e565b60405180910390f35b6100d660048036038101906100d19190611c18565b6106f0565b6040516100e39190611d9e565b60405180910390f35b61010660048036038101906101019190611c18565b610942565b6040516101139190611b3a565b60405180910390f35b61013660048036038101906101319190611dc0565b610971565b6040516101439190611ea2565b60405180910390f35b60008061015d846000015151610dce565b905060008167ffffffffffffffff81111561017b5761017a6117a4565b5b6040519080825280602002602001820160405280156101a95781602001602082028036833780820191505090505b50905060008267ffffffffffffffff8111156101c8576101c76117a4565b5b6040519080825280602002602001820160405280156101f65781602001602082028036833780820191505090505b5090506000807f30644e72e131a029b85045b68181585d2833e84879b9709143e1f593f000000188602001516000015189602001516020015160008001546000600101548c60400151604051602001610253959493929190611ee5565b6040516020818303038152906040528051906020012060001c6102769190611f73565b905060006102be89602001516102b96000604051806040016040529081600082015481526020016001820154815250506102b48d6040015187610e02565b610e3e565b610ef6565b90506001925060005b8681101561052c577f30644e72e131a029b85045b68181585d2833e84879b9709143e1f593f00000018960000151828151811061030757610306611fa4565b5b6020026020010151600001518a60000151838151811061032a57610329611fa4565b5b6020026020010151602001518b60200151848151811061034d5761034c611fa4565b5b6020026020010151600001518c6020015185815181106103705761036f611fa4565b5b60200260200101516020015160405160200161038f9493929190611fd3565b6040516020818303038152906040528051906020012060001c6103b29190611f73565b8682815181106103c5576103c4611fa4565b5b6020026020010181815250506103f48682815181106103e7576103e6611fa4565b5b6020026020010151610faa565b85828151811061040757610406611fa4565b5b6020026020010181815250506104818261047c8b60000151848151811061043157610430611fa4565b5b60200260200101516104778a868151811061044f5761044e611fa4565b5b60200260200101518b878151811061046a57610469611fa4565b5b6020026020010151610e02565b610e3e565b610ef6565b91506104f1826104ec8b6020015184815181106104a1576104a0611fa4565b5b60200260200101516104e78986815181106104bf576104be611fa4565b5b60200260200101518a87815181106104da576104d9611fa4565b5b6020026020010151610e02565b610e3e565b610ef6565b91506105178486838151811061050a57610509611fa4565b5b6020026020010151610e02565b9350808061052490612050565b9150506102c7565b5060006105588a6000015160008151811061054a57610549611fa4565b5b602002602001015185610e3e565b90506000600190505b8a6000015151811015610666576001945060005b8881101561061f57610587828261100a565b156105ce576105c786896001848d61059f9190612098565b6105a99190612098565b815181106105ba576105b9611fa4565b5b6020026020010151610e02565b955061060c565b61060986886001848d6105e19190612098565b6105eb9190612098565b815181106105fc576105fb611fa4565b5b6020026020010151610e02565b95505b808061061790612050565b915050610575565b506106518261064c8d60000151848151811061063e5761063d611fa4565b5b602002602001015188610e3e565b610ef6565b9150808061065e90612050565b915050610561565b506106a7816106a261069860006040518060400160405290816000820154815260200160018201548152505087610e3e565b8c60600151610e3e565b610ef6565b90506106b7818a60400151610e3e565b90506106c3828261101d565b97505050505050505092915050565b6106da611689565b60006106e5836106f0565b905080915050919050565b6106f8611689565b6000600183516107089190612098565b8351161461074b576040517f08c379a00000000000000000000000000000000000000000000000000000000081526004016107429061214f565b60405180910390fd5b815167ffffffffffffffff811115610766576107656117a4565b5b60405190808252806020026020018201604052801561079f57816020015b61078c6116b0565b8152602001906001900390816107845790505b50816000018190525060005b825181101561081f576107ea6000604051806040016040529081600082015481526020016001820154815250506002836107e5919061216f565b610e3e565b8260000151828151811061080157610800611fa4565b5b6020026020010181905250808061081790612050565b9150506107ab565b508160008151811061083457610833611fa4565b5b602002602001015181604001818152505061088981600001516000815181106108605761085f611fa4565b5b60200260200101518360008151811061087c5761087b611fa4565b5b6020026020010151610e3e565b81602001819052506000600190505b825181101561093c576108c982604001518483815181106108bc576108bb611fa4565b5b6020026020010151611045565b826040018181525050610921826020015161091c846000015184815181106108f4576108f3611fa4565b5b602002602001015186858151811061090f5761090e611fa4565b5b6020026020010151610e3e565b610ef6565b8260200181905250808061093490612050565b915050610898565b50919050565b60008061094e836106f0565b9050600061095c8285610971565b9050610968828261014c565b92505050919050565b6109796116ca565b6000600183516109899190612098565b835116146109cc576040517f08c379a00000000000000000000000000000000000000000000000000000000081526004016109c39061214f565b60405180910390fd5b60006109d88351610dce565b90508067ffffffffffffffff8111156109f4576109f36117a4565b5b604051908082528060200260200182016040528015610a2d57816020015b610a1a6116b0565b815260200190600190039081610a125790505b5082600001819052508067ffffffffffffffff811115610a5057610a4f6117a4565b5b604051908082528060200260200182016040528015610a8957816020015b610a766116b0565b815260200190600190039081610a6e5790505b50826020018190525060007f30644e72e131a029b85045b68181585d2833e84879b9709143e1f593f000000185602001516000015186602001516020015160008001546000600101548960400151604051602001610aeb959493929190611ee5565b6040516020818303038152906040528051906020012060001c610b0e9190611f73565b90506000610b3c60006040518060400160405290816000820154815260200160018201548152505083610e3e565b90506000855167ffffffffffffffff811115610b5b57610b5a6117a4565b5b604051908082528060200260200182016040528015610b895781602001602082028036833780820191505090505b5090506000865167ffffffffffffffff811115610ba957610ba86117a4565b5b604051908082528060200260200182016040528015610be257816020015b610bcf6116b0565b815260200190600190039081610bc75790505b50905060005b8251811015610c62576001838281518110610c0657610c05611fa4565b5b60200260200101818152505088600001518181518110610c2957610c28611fa4565b5b6020026020010151828281518110610c4457610c43611fa4565b5b60200260200101819052508080610c5a90612050565b915050610be8565b50610c6b6116b0565b610c736116b0565b600080600090505b88811015610d7557610c8f858c888a611081565b8094508195505050838a600001518281518110610caf57610cae611fa4565b5b6020026020010181905250828a602001518281518110610cd257610cd1611fa4565b5b60200260200101819052507f30644e72e131a029b85045b68181585d2833e84879b9709143e1f593f00000018460000151856020015185600001518660200151604051602001610d259493929190611fd3565b6040516020818303038152906040528051906020012060001c610d489190611f73565b9150610d56858c88856112df565b809850819d508297505050508080610d6d90612050565b915050610c7b565b5089600081518110610d8a57610d89611fa4565b5b602002602001015189604001818152505084600081518110610daf57610dae611fa4565b5b6020026020010151896060018181525050505050505050505092915050565b60005b6001821115610dfd57600181610de7919061216f565b9050600282610df691906121a3565b9150610dd1565b919050565b60007f30644e72e131a029b85045b68181585d2833e84879b9709143e1f593f000000180610e3357610e32611f44565b5b828409905092915050565b610e466116b0565b60018203610e5657829050610ef0565b60028203610e6f57610e688384610ef6565b9050610ef0565b610e776116f2565b836000015181600060038110610e9057610e8f611fa4565b5b602002018181525050836020015181600160038110610eb257610eb1611fa4565b5b6020020181815250508281600260038110610ed057610ecf611fa4565b5b6020020181815250506040826060836007600019fa610eee57600080fd5b505b92915050565b610efe6116b0565b610f06611714565b836000015181600060048110610f1f57610f1e611fa4565b5b602002018181525050836020015181600160048110610f4157610f40611fa4565b5b602002018181525050826000015181600260048110610f6357610f62611fa4565b5b602002018181525050826020015181600360048110610f8557610f84611fa4565b5b6020020181815250506040826080836006600019fa610fa357600080fd5b5092915050565b60006110038260027f30644e72e131a029b85045b68181585d2833e84879b9709143e1f593f0000001610fdd9190612098565b7f30644e72e131a029b85045b68181585d2833e84879b9709143e1f593f0000001611587565b9050919050565b60006001808385901c1614905092915050565b60008160000151836000015114801561103d575081602001518360200151145b905092915050565b60007f30644e72e131a029b85045b68181585d2833e84879b9709143e1f593f00000018061107657611075611f44565b5b828408905092915050565b6110896116b0565b6110916116b0565b6000600286516110a191906121a3565b905060006110e4876000815181106110bc576110bb611fa4565b5b60200260200101518784815181106110d7576110d6611fa4565b5b6020026020010151610e02565b905060006111278884815181106110fe576110fd611fa4565b5b60200260200101518860008151811061111a57611119611fa4565b5b6020026020010151610e02565b90506000600190505b838110156111f35761118a836111858b848151811061115257611151611fa4565b5b60200260200101518b8589611167919061216f565b8151811061117857611177611fa4565b5b6020026020010151610e02565b611045565b92506111de826111d98b84886111a0919061216f565b815181106111b1576111b0611fa4565b5b60200260200101518b85815181106111cc576111cb611fa4565b5b6020026020010151610e02565b611045565b915080806111eb90612050565b915050611130565b506111fe8683610e3e565b945061120a8682610e3e565b935060005b838110156112d257611269866112648c848861122b919061216f565b8151811061123c5761123b611fa4565b5b60200260200101518c858151811061125757611256611fa4565b5b6020026020010151610e3e565b610ef6565b95506112bd856112b88c848151811061128557611284611fa4565b5b60200260200101518c858961129a919061216f565b815181106112ab576112aa611fa4565b5b6020026020010151610e3e565b610ef6565b945080806112ca90612050565b91505061120f565b5050505094509492505050565b60608060606000600287516112f491906121a3565b9050600061130186610faa565b90508167ffffffffffffffff81111561131d5761131c6117a4565b5b60405190808252806020026020018201604052801561135657816020015b6113436116b0565b81526020019060019003908161133b5790505b5094508167ffffffffffffffff811115611373576113726117a4565b5b6040519080825280602002602001820160405280156113a15781602001602082028036833780820191505090505b5093508167ffffffffffffffff8111156113be576113bd6117a4565b5b6040519080825280602002602001820160405280156113ec5781602001602082028036833780820191505090505b50925060005b8281101561157a576114556114218b838151811061141357611412611fa4565b5b602002602001015184610e3e565b6114508c8487611431919061216f565b8151811061144257611441611fa4565b5b60200260200101518a610e3e565b610ef6565b86828151811061146857611467611fa4565b5b60200260200101819052506114ce61149a888b848151811061148d5761148c611fa4565b5b6020026020010151610e02565b6114c9848c85886114ab919061216f565b815181106114bc576114bb611fa4565b5b6020026020010151610e02565b611045565b8582815181106114e1576114e0611fa4565b5b602002602001018181525050611548611514838a848151811061150757611506611fa4565b5b6020026020010151610e02565b611543898b8588611525919061216f565b8151811061153657611535611fa4565b5b6020026020010151610e02565b611045565b84828151811061155b5761155a611fa4565b5b602002602001018181525050808061157290612050565b9150506113f2565b5050509450945094915050565b6000611591611736565b611599611758565b6020826000600681106115af576115ae611fa4565b5b6020020181815250506020826001600681106115ce576115cd611fa4565b5b6020020181815250506020826002600681106115ed576115ec611fa4565b5b602002018181525050858260036006811061160b5761160a611fa4565b5b602002018181525050848260046006811061162957611628611fa4565b5b602002018181525050838260056006811061164757611646611fa4565b5b60200201818152505060208160c0846005600019fa61166557600080fd5b8060006001811061167957611678611fa4565b5b6020020151925050509392505050565b6040518060600160405280606081526020016116a36116b0565b8152602001600081525090565b604051806040016040528060008152602001600081525090565b6040518060800160405280606081526020016060815260200160008152602001600081525090565b6040518060600160405280600390602082028036833780820191505090505090565b6040518060800160405280600490602082028036833780820191505090505090565b6040518060c00160405280600690602082028036833780820191505090505090565b6040518060200160405280600190602082028036833780820191505090505090565b6000604051905090565b600080fd5b600080fd5b600080fd5b6000601f19601f8301169050919050565b7f4e487b7100000000000000000000000000000000000000000000000000000000600052604160045260246000fd5b6117dc82611793565b810181811067ffffffffffffffff821117156117fb576117fa6117a4565b5b80604052505050565b600061180e61177a565b905061181a82826117d3565b919050565b600080fd5b600080fd5b600067ffffffffffffffff821115611844576118436117a4565b5b602082029050602081019050919050565b600080fd5b6000819050919050565b61186d8161185a565b811461187857600080fd5b50565b60008135905061188a81611864565b92915050565b6000604082840312156118a6576118a561178e565b5b6118b06040611804565b905060006118c08482850161187b565b60008301525060206118d48482850161187b565b60208301525092915050565b60006118f36118ee84611829565b611804565b9050808382526020820190506040840283018581111561191657611915611855565b5b835b8181101561193f578061192b8882611890565b845260208401935050604081019050611918565b5050509392505050565b600082601f83011261195e5761195d611824565b5b813561196e8482602086016118e0565b91505092915050565b60006080828403121561198d5761198c61178e565b5b6119976060611804565b9050600082013567ffffffffffffffff8111156119b7576119b661181f565b5b6119c384828501611949565b60008301525060206119d784828501611890565b60208301525060606119eb8482850161187b565b60408301525092915050565b600060808284031215611a0d57611a0c61178e565b5b611a176080611804565b9050600082013567ffffffffffffffff811115611a3757611a3661181f565b5b611a4384828501611949565b600083015250602082013567ffffffffffffffff811115611a6757611a6661181f565b5b611a7384828501611949565b6020830152506040611a878482850161187b565b6040830152506060611a9b8482850161187b565b60608301525092915050565b60008060408385031215611abe57611abd611784565b5b600083013567ffffffffffffffff811115611adc57611adb611789565b5b611ae885828601611977565b925050602083013567ffffffffffffffff811115611b0957611b08611789565b5b611b15858286016119f7565b9150509250929050565b60008115159050919050565b611b3481611b1f565b82525050565b6000602082019050611b4f6000830184611b2b565b92915050565b600067ffffffffffffffff821115611b7057611b6f6117a4565b5b602082029050602081019050919050565b6000611b94611b8f84611b55565b611804565b90508083825260208201905060208402830185811115611bb757611bb6611855565b5b835b81811015611be05780611bcc888261187b565b845260208401935050602081019050611bb9565b5050509392505050565b600082601f830112611bff57611bfe611824565b5b8135611c0f848260208601611b81565b91505092915050565b600060208284031215611c2e57611c2d611784565b5b600082013567ffffffffffffffff811115611c4c57611c4b611789565b5b611c5884828501611bea565b91505092915050565b600081519050919050565b600082825260208201905092915050565b6000819050602082019050919050565b611c968161185a565b82525050565b604082016000820151611cb26000850182611c8d565b506020820151611cc56020850182611c8d565b50505050565b6000611cd78383611c9c565b60408301905092915050565b6000602082019050919050565b6000611cfb82611c61565b611d058185611c6c565b9350611d1083611c7d565b8060005b83811015611d41578151611d288882611ccb565b9750611d3383611ce3565b925050600181019050611d14565b5085935050505092915050565b60006080830160008301518482036000860152611d6b8282611cf0565b9150506020830151611d806020860182611c9c565b506040830151611d936060860182611c8d565b508091505092915050565b60006020820190508181036000830152611db88184611d4e565b905092915050565b60008060408385031215611dd757611dd6611784565b5b600083013567ffffffffffffffff811115611df557611df4611789565b5b611e0185828601611977565b925050602083013567ffffffffffffffff811115611e2257611e21611789565b5b611e2e85828601611bea565b9150509250929050565b60006080830160008301518482036000860152611e558282611cf0565b91505060208301518482036020860152611e6f8282611cf0565b9150506040830151611e846040860182611c8d565b506060830151611e976060860182611c8d565b508091505092915050565b60006020820190508181036000830152611ebc8184611e38565b905092915050565b6000819050919050565b611edf611eda8261185a565b611ec4565b82525050565b6000611ef18288611ece565b602082019150611f018287611ece565b602082019150611f118286611ece565b602082019150611f218285611ece565b602082019150611f318284611ece565b6020820191508190509695505050505050565b7f4e487b7100000000000000000000000000000000000000000000000000000000600052601260045260246000fd5b6000611f7e8261185a565b9150611f898361185a565b925082611f9957611f98611f44565b5b828206905092915050565b7f4e487b7100000000000000000000000000000000000000000000000000000000600052603260045260246000fd5b6000611fdf8287611ece565b602082019150611fef8286611ece565b602082019150611fff8285611ece565b60208201915061200f8284611ece565b60208201915081905095945050505050565b7f4e487b7100000000000000000000000000000000000000000000000000000000600052601160045260246000fd5b600061205b8261185a565b91507fffffffffffffffffffffffffffffffffffffffffffffffffffffffffffffffff820361208d5761208c612021565b5b600182019050919050565b60006120a38261185a565b91506120ae8361185a565b92508282039050818111156120c6576120c5612021565b5b92915050565b600082825260208201905092915050565b7f766563746f72206c656e6774682073686f756c64206265206120706f7765722060008201527f6f66203200000000000000000000000000000000000000000000000000000000602082015250565b60006121396024836120cc565b9150612144826120dd565b604082019050919050565b600060208201905081810360008301526121688161212c565b9050919050565b600061217a8261185a565b91506121858361185a565b925082820190508082111561219d5761219c612021565b5b92915050565b60006121ae8261185a565b91506121b98361185a565b9250826121c9576121c8611f44565b5b82820490509291505056fea26469706673582212208af217cdde33e3c6d8edf539fd22bc05c9b9415755322524fdad3f29a0913b6664736f6c63430008130033",
  "immutableReferences": {},
  "source": "// SPDX-License-Identifier: GPL-3.0\npragma solidity >=0.4.0 <0.9.0;\n\nimport \"./alt_bn128.sol\";\n\n// proof using iteration\ncontract NISA {\n    using alt_bn128 for uint256;\n    using alt_bn128 for alt_bn128.G1Point;\n\n    alt_bn128.G1Point u; // random generator\n\n    struct Param {\n        alt_bn128.G1Point[] Gs;\n        alt_bn128.G1Point P;\n        uint256 c;\n    }\n\n    struct Proof {\n        alt_bn128.G1Point[] Ls;\n        alt_bn128.G1Point[] Rs;\n        uint256 a;\n        uint256 b;\n    }\n\n    constructor() {\n        // uint256 seed = uint256(keccak256(abi.encodePacked(block.timestamp, blockhash(block.number - 1))));\n        u = alt_bn128.uintToCurvePoint(1);\n    }\n\n    /** test correctness */\n    function test_p(uint256[] memory a) public view returns (Param memory) {\n        Param memory param = generateParam(a);\n        // Proof memory p = prove(param, a);\n        return param;\n    }\n\n    /** test correctness */\n    function test(uint256[] memory a) public view returns (bool) {\n        Param memory param = generateParam(a);\n        Proof memory p = prove(param, a);\n        return verify(param, p);\n    }\n\n    /** \n\t\tGs : public keys\n\t\tP : prod_i (g_i ^ a_i)\n\t\tc : sum_i a_i\n\t */\n    function generateParam(\n        uint256[] memory a\n    ) public view returns (Param memory param) {\n        require(\n            a.length & (a.length - 1) == 0,\n            \"vector length should be a power of 2\"\n        );\n        param.Gs = new alt_bn128.G1Point[](a.length);\n        for (uint256 i = 0; i < a.length; i++) {\n            param.Gs[i] = alt_bn128.mul(u,i+2);\n        }\n        param.c = a[0];\n        param.P = alt_bn128.mul(param.Gs[0], a[0]);\n        for (uint i = 1; i < a.length; i++) {\n            param.c = alt_bn128.add(param.c, a[i]);\n            param.P = alt_bn128.add(param.P, alt_bn128.mul(param.Gs[i], a[i]));\n        }\n    }\n\n    function prove(\n        Param memory param,\n        uint256[] memory a\n    ) public view returns (Proof memory p) {\n        require(\n            a.length & (a.length - 1) == 0,\n            \"vector length should be a power of 2\"\n        );\n\n        uint length = log2(a.length);\n        p.Ls = new alt_bn128.G1Point[](length);\n        p.Rs = new alt_bn128.G1Point[](length);\n\n        uint256 H_z = uint256(\n            keccak256(\n                abi.encodePacked(\n                    param.P.X,\n                    param.P.Y,\n                    u.X,\n                    u.Y,\n                    param.c\n                )\n            )\n        )%(alt_bn128.q);\n\n        alt_bn128.G1Point memory u_prime = alt_bn128.mul(u, H_z);\n\n        uint256[] memory b = new uint256[](a.length);\n        alt_bn128.G1Point[] memory Gs = new alt_bn128.G1Point[](a.length);\n        for (uint i = 0; i < b.length; i++) {\n            b[i] = 1;\n            Gs[i] = param.Gs[i];\n        }\n        alt_bn128.G1Point memory L;\n        alt_bn128.G1Point memory R;\n        uint256 x;\n\n        // O(logn) loop\n        for (uint idx = 0; idx < length; idx++) {\n            // L && R\n            (L, R) = LR(Gs, a, b, u_prime);\n            p.Ls[idx] = L;\n            p.Rs[idx] = R;\n\n            x = uint256(\n                keccak256(\n                    abi.encodePacked(\n                        L.X,\n                        L.Y,\n                        R.X,\n                        R.Y\n                    )\n                )\n            )%(alt_bn128.q);\n\n            // half size\n            (Gs, a, b) = nextRound(Gs, a, b, x);\n        }\n\n        p.a = a[0];\n        p.b = b[0];\n    }\n\n    function LR(\n        alt_bn128.G1Point[] memory Gs,\n        uint256[] memory a,\n        uint256[] memory b,\n        alt_bn128.G1Point memory u_prime\n    )\n        internal\n        view\n        returns (alt_bn128.G1Point memory L, alt_bn128.G1Point memory R)\n    {\n        uint n = a.length / 2;\n        uint256 cL = alt_bn128.mul(a[0], b[n]);\n        uint256 cR = alt_bn128.mul(a[n], b[0]);\n        for (uint i = 1; i < n; i++) {\n            cL = alt_bn128.add(cL, alt_bn128.mul(a[i], b[n + i]));\n            cR = alt_bn128.add(cR, alt_bn128.mul(a[n + i], b[i]));\n        }\n\n        L = alt_bn128.mul(u_prime, cL);\n        R = alt_bn128.mul(u_prime, cR);\n\n        for (uint i = 0; i < n; i++) {\n            L = alt_bn128.add(L, alt_bn128.mul(Gs[n + i], a[i]));\n            R = alt_bn128.add(R, alt_bn128.mul(Gs[i], a[n + i]));\n        }\n    }\n\n    function nextRound(\n        alt_bn128.G1Point[] memory Gs,\n        uint256[] memory a,\n        uint256[] memory b,\n        uint256 x\n    )\n        internal\n        view\n        returns (\n            alt_bn128.G1Point[] memory Gs_new,\n            uint256[] memory a_new,\n            uint256[] memory b_new\n        )\n    {\n        uint n = a.length / 2;\n\n        uint256 x_inv = alt_bn128.inv(x);\n\n        Gs_new = new alt_bn128.G1Point[](n);\n        a_new = new uint256[](n);\n        b_new = new uint256[](n);\n\n        for (uint i = 0; i < n; i++) {\n            Gs_new[i] = alt_bn128.add(\n                alt_bn128.mul(Gs[i], x_inv),\n                alt_bn128.mul(Gs[n + i], x)\n            );\n            a_new[i] = alt_bn128.add(\n                alt_bn128.mul(x, a[i]),\n                alt_bn128.mul(x_inv, a[n + i])\n            );\n            b_new[i] = alt_bn128.add(\n                alt_bn128.mul(x_inv, b[i]),\n                alt_bn128.mul(x, b[n + i])\n            );\n        }\n    }\n\n    function verify(\n        Param memory param,\n        Proof memory p\n    ) public view returns (bool) {\n        uint length = log2(param.Gs.length);\n\n        uint256[] memory xs = new uint256[](length);\n        uint256[] memory xs_inv = new uint256[](length);\n        uint256 y;\n        // verify\n        uint256 H_z = uint256(\n            keccak256(\n                abi.encodePacked(\n                    param.P.X,\n                    param.P.Y,\n                    u.X,\n                    u.Y,\n                    param.c\n                )\n            )\n        )%(alt_bn128.q);\n        alt_bn128.G1Point memory left_point = alt_bn128.add(\n            param.P,\n            alt_bn128.mul(u, alt_bn128.mul(param.c, H_z))\n        );\n\n        y = 1;\n        for (uint i = 0; i < length; i++) {\n            xs[i] = uint256(\n                keccak256(\n                    abi.encodePacked(\n                        p.Ls[i].X,\n                        p.Ls[i].Y,\n                        p.Rs[i].X,\n                        p.Rs[i].Y\n                    )\n                )\n            )%(alt_bn128.q);\n            xs_inv[i] = alt_bn128.inv(xs[i]);\n\n            left_point = alt_bn128.add(\n                left_point,\n                alt_bn128.mul(p.Ls[i], alt_bn128.mul(xs[i], xs[i]))\n            );\n            left_point = alt_bn128.add(\n                left_point,\n                alt_bn128.mul(p.Rs[i], alt_bn128.mul(xs_inv[i], xs_inv[i]))\n            );\n            y = alt_bn128.mul(y, xs_inv[i]);\n        }\n        alt_bn128.G1Point memory right_point = alt_bn128.mul(param.Gs[0], y);\n\n        // uint k;\n        for (uint i = 1; i < param.Gs.length; i++) {\n            y = 1;\n            // k = length;\n            for (uint j = 0; j < length; j++) {\n                // k--;\n                if (check_bit(i, j)) {\n                    y = alt_bn128.mul(y, xs[length - j - 1]);\n                } else {\n                    y = alt_bn128.mul(y, xs_inv[length - j - 1]);\n                }\n            }\n            right_point = alt_bn128.add(\n                right_point,\n                alt_bn128.mul(param.Gs[i], y)\n            );\n        }\n        right_point = alt_bn128.add(\n            right_point,\n            alt_bn128.mul(alt_bn128.mul(u, H_z), p.b)\n        );\n        right_point = alt_bn128.mul(right_point, p.a);\n\n        return alt_bn128.eq(left_point, right_point);\n    }\n\n    function log2(uint n) internal pure returns (uint ndigits) {\n        ndigits = 0;\n        while (n > 1) {\n            ndigits += 1;\n            n = n / 2;\n        }\n    }\n\n    function check_bit(uint i, uint j) internal pure returns (bool) {\n        return ((i >> j) & 1) == 1;\n    }\n}\n",
  "sourcePath": "/Users/hxy/ZK-research/ZKP-Blockchain/contracts/nisa.sol",
  "compiler": {
    "name": "solc",
    "version": "0.8.19+commit.7dd6d404.Emscripten.clang"
  },
  "schemaVersion": "3.4.13",
  "updatedAt": "2023-05-04T03:27:50.893Z",
  "devdoc": {
    "kind": "dev",
    "methods": {},
    "version": 1
  },
  "userdoc": {
    "kind": "user",
    "methods": {
      "generateParam(uint256[])": {
        "notice": "Gs : public keys P : prod_i (g_i ^ a_i) c : sum_i a_i"
      },
      "test(uint256[])": {
        "notice": "test correctness "
      },
      "test_p(uint256[])": {
        "notice": "test correctness "
      }
    },
    "version": 1
  }
}